{
  "_format": "hh-sol-artifact-1",
  "contractName": "WebTimeFolks",
  "sourceName": "contracts/WebTimeFolks.sol",
  "abi": [
    {
      "inputs": [
        {
          "internalType": "string",
          "name": "_initBaseURI",
          "type": "string"
        },
        {
          "internalType": "string",
          "name": "_initNotRevealedUri",
          "type": "string"
        }
      ],
      "stateMutability": "nonpayable",
      "type": "constructor"
    },
    {
      "anonymous": false,
      "inputs": [
        {
          "indexed": true,
          "internalType": "address",
          "name": "owner",
          "type": "address"
        },
        {
          "indexed": true,
          "internalType": "address",
          "name": "approved",
          "type": "address"
        },
        {
          "indexed": true,
          "internalType": "uint256",
          "name": "tokenId",
          "type": "uint256"
        }
      ],
      "name": "Approval",
      "type": "event"
    },
    {
      "anonymous": false,
      "inputs": [
        {
          "indexed": true,
          "internalType": "address",
          "name": "owner",
          "type": "address"
        },
        {
          "indexed": true,
          "internalType": "address",
          "name": "operator",
          "type": "address"
        },
        {
          "indexed": false,
          "internalType": "bool",
          "name": "approved",
          "type": "bool"
        }
      ],
      "name": "ApprovalForAll",
      "type": "event"
    },
    {
      "anonymous": false,
      "inputs": [
        {
          "indexed": true,
          "internalType": "address",
          "name": "previousOwner",
          "type": "address"
        },
        {
          "indexed": true,
          "internalType": "address",
          "name": "newOwner",
          "type": "address"
        }
      ],
      "name": "OwnershipTransferred",
      "type": "event"
    },
    {
      "anonymous": false,
      "inputs": [
        {
          "indexed": true,
          "internalType": "address",
          "name": "from",
          "type": "address"
        },
        {
          "indexed": true,
          "internalType": "address",
          "name": "to",
          "type": "address"
        },
        {
          "indexed": true,
          "internalType": "uint256",
          "name": "tokenId",
          "type": "uint256"
        }
      ],
      "name": "Transfer",
      "type": "event"
    },
    {
      "inputs": [],
      "name": "MAX_MINT_AMOUNT",
      "outputs": [
        {
          "internalType": "uint256",
          "name": "",
          "type": "uint256"
        }
      ],
      "stateMutability": "view",
      "type": "function"
    },
    {
      "inputs": [],
      "name": "MAX_SUPPLY",
      "outputs": [
        {
          "internalType": "uint256",
          "name": "",
          "type": "uint256"
        }
      ],
      "stateMutability": "view",
      "type": "function"
    },
    {
      "inputs": [],
      "name": "PRICE",
      "outputs": [
        {
          "internalType": "uint256",
          "name": "",
          "type": "uint256"
        }
      ],
      "stateMutability": "view",
      "type": "function"
    },
    {
      "inputs": [
        {
          "internalType": "address",
          "name": "to",
          "type": "address"
        },
        {
          "internalType": "uint256",
          "name": "tokenId",
          "type": "uint256"
        }
      ],
      "name": "approve",
      "outputs": [],
      "stateMutability": "nonpayable",
      "type": "function"
    },
    {
      "inputs": [
        {
          "internalType": "address",
          "name": "owner",
          "type": "address"
        }
      ],
      "name": "balanceOf",
      "outputs": [
        {
          "internalType": "uint256",
          "name": "",
          "type": "uint256"
        }
      ],
      "stateMutability": "view",
      "type": "function"
    },
    {
      "inputs": [
        {
          "internalType": "uint256",
          "name": "tokenId",
          "type": "uint256"
        }
      ],
      "name": "getApproved",
      "outputs": [
        {
          "internalType": "address",
          "name": "",
          "type": "address"
        }
      ],
      "stateMutability": "view",
      "type": "function"
    },
    {
      "inputs": [],
      "name": "getIsPublicSaleActive",
      "outputs": [
        {
          "internalType": "bool",
          "name": "",
          "type": "bool"
        }
      ],
      "stateMutability": "view",
      "type": "function"
    },
    {
      "inputs": [],
      "name": "getIsWhiteListSaleActive",
      "outputs": [
        {
          "internalType": "bool",
          "name": "",
          "type": "bool"
        }
      ],
      "stateMutability": "view",
      "type": "function"
    },
    {
      "inputs": [
        {
          "internalType": "address",
          "name": "addr",
          "type": "address"
        }
      ],
      "name": "getNumAvailableToMint",
      "outputs": [
        {
          "internalType": "uint8",
          "name": "",
          "type": "uint8"
        }
      ],
      "stateMutability": "view",
      "type": "function"
    },
    {
      "inputs": [
        {
          "internalType": "address",
          "name": "owner",
          "type": "address"
        },
        {
          "internalType": "address",
          "name": "operator",
          "type": "address"
        }
      ],
      "name": "isApprovedForAll",
      "outputs": [
        {
          "internalType": "bool",
          "name": "",
          "type": "bool"
        }
      ],
      "stateMutability": "view",
      "type": "function"
    },
    {
      "inputs": [],
      "name": "isPublicSaleActive",
      "outputs": [
        {
          "internalType": "bool",
          "name": "",
          "type": "bool"
        }
      ],
      "stateMutability": "view",
      "type": "function"
    },
    {
      "inputs": [],
      "name": "isWhiteListSaleActive",
      "outputs": [
        {
          "internalType": "bool",
          "name": "",
          "type": "bool"
        }
      ],
      "stateMutability": "view",
      "type": "function"
    },
    {
      "inputs": [
        {
          "internalType": "uint256",
          "name": "numberOfTokens",
          "type": "uint256"
        }
      ],
      "name": "mintPublic",
      "outputs": [],
      "stateMutability": "payable",
      "type": "function"
    },
    {
      "inputs": [
        {
          "internalType": "uint8",
          "name": "numberOfTokens",
          "type": "uint8"
        }
      ],
      "name": "mintWhiteList",
      "outputs": [],
      "stateMutability": "payable",
      "type": "function"
    },
    {
      "inputs": [],
      "name": "name",
      "outputs": [
        {
          "internalType": "string",
          "name": "",
          "type": "string"
        }
      ],
      "stateMutability": "view",
      "type": "function"
    },
    {
      "inputs": [],
      "name": "owner",
      "outputs": [
        {
          "internalType": "address",
          "name": "",
          "type": "address"
        }
      ],
      "stateMutability": "view",
      "type": "function"
    },
    {
      "inputs": [
        {
          "internalType": "uint256",
          "name": "tokenId",
          "type": "uint256"
        }
      ],
      "name": "ownerOf",
      "outputs": [
        {
          "internalType": "address",
          "name": "",
          "type": "address"
        }
      ],
      "stateMutability": "view",
      "type": "function"
    },
    {
      "inputs": [],
      "name": "renounceOwnership",
      "outputs": [],
      "stateMutability": "nonpayable",
      "type": "function"
    },
    {
      "inputs": [
        {
          "internalType": "uint256",
          "name": "n",
          "type": "uint256"
        }
      ],
      "name": "reserve",
      "outputs": [],
      "stateMutability": "nonpayable",
      "type": "function"
    },
    {
      "inputs": [],
      "name": "revealed",
      "outputs": [
        {
          "internalType": "bool",
          "name": "",
          "type": "bool"
        }
      ],
      "stateMutability": "view",
      "type": "function"
    },
    {
      "inputs": [
        {
          "internalType": "address",
          "name": "from",
          "type": "address"
        },
        {
          "internalType": "address",
          "name": "to",
          "type": "address"
        },
        {
          "internalType": "uint256",
          "name": "tokenId",
          "type": "uint256"
        }
      ],
      "name": "safeTransferFrom",
      "outputs": [],
      "stateMutability": "nonpayable",
      "type": "function"
    },
    {
      "inputs": [
        {
          "internalType": "address",
          "name": "from",
          "type": "address"
        },
        {
          "internalType": "address",
          "name": "to",
          "type": "address"
        },
        {
          "internalType": "uint256",
          "name": "tokenId",
          "type": "uint256"
        },
        {
          "internalType": "bytes",
          "name": "_data",
          "type": "bytes"
        }
      ],
      "name": "safeTransferFrom",
      "outputs": [],
      "stateMutability": "nonpayable",
      "type": "function"
    },
    {
      "inputs": [
        {
          "internalType": "address",
          "name": "operator",
          "type": "address"
        },
        {
          "internalType": "bool",
          "name": "approved",
          "type": "bool"
        }
      ],
      "name": "setApprovalForAll",
      "outputs": [],
      "stateMutability": "nonpayable",
      "type": "function"
    },
    {
      "inputs": [
        {
          "internalType": "string",
          "name": "_newBaseURI",
          "type": "string"
        }
      ],
      "name": "setBaseURI",
      "outputs": [],
      "stateMutability": "nonpayable",
      "type": "function"
    },
    {
      "inputs": [
        {
          "internalType": "bool",
          "name": "_isPublicSaleActive",
          "type": "bool"
        }
      ],
      "name": "setIsPublicSaleActive",
      "outputs": [],
      "stateMutability": "nonpayable",
      "type": "function"
    },
    {
      "inputs": [
        {
          "internalType": "bool",
          "name": "_isWhiteListActive",
          "type": "bool"
        }
      ],
      "name": "setIsWhiteListSaleActive",
      "outputs": [],
      "stateMutability": "nonpayable",
      "type": "function"
    },
    {
      "inputs": [
        {
          "internalType": "string",
          "name": "_notRevealedURI",
          "type": "string"
        }
      ],
      "name": "setNotRevealedURI",
      "outputs": [],
      "stateMutability": "nonpayable",
      "type": "function"
    },
    {
      "inputs": [
        {
          "internalType": "uint256",
          "name": "_price",
          "type": "uint256"
        }
      ],
      "name": "setPrice",
      "outputs": [],
      "stateMutability": "nonpayable",
      "type": "function"
    },
    {
      "inputs": [
        {
          "internalType": "bool",
          "name": "_revealed",
          "type": "bool"
        }
      ],
      "name": "setRevealed",
      "outputs": [],
      "stateMutability": "nonpayable",
      "type": "function"
    },
    {
      "inputs": [
        {
          "internalType": "address[]",
          "name": "addresses",
          "type": "address[]"
        },
        {
          "internalType": "uint8",
          "name": "numAllowedToMint",
          "type": "uint8"
        }
      ],
      "name": "setWhiteList",
      "outputs": [],
      "stateMutability": "nonpayable",
      "type": "function"
    },
    {
      "inputs": [
        {
          "internalType": "bytes4",
          "name": "interfaceId",
          "type": "bytes4"
        }
      ],
      "name": "supportsInterface",
      "outputs": [
        {
          "internalType": "bool",
          "name": "",
          "type": "bool"
        }
      ],
      "stateMutability": "view",
      "type": "function"
    },
    {
      "inputs": [],
      "name": "symbol",
      "outputs": [
        {
          "internalType": "string",
          "name": "",
          "type": "string"
        }
      ],
      "stateMutability": "view",
      "type": "function"
    },
    {
      "inputs": [
        {
          "internalType": "uint256",
          "name": "index",
          "type": "uint256"
        }
      ],
      "name": "tokenByIndex",
      "outputs": [
        {
          "internalType": "uint256",
          "name": "",
          "type": "uint256"
        }
      ],
      "stateMutability": "view",
      "type": "function"
    },
    {
      "inputs": [
        {
          "internalType": "address",
          "name": "owner",
          "type": "address"
        },
        {
          "internalType": "uint256",
          "name": "index",
          "type": "uint256"
        }
      ],
      "name": "tokenOfOwnerByIndex",
      "outputs": [
        {
          "internalType": "uint256",
          "name": "",
          "type": "uint256"
        }
      ],
      "stateMutability": "view",
      "type": "function"
    },
    {
      "inputs": [
        {
          "internalType": "uint256",
          "name": "tokenId",
          "type": "uint256"
        }
      ],
      "name": "tokenURI",
      "outputs": [
        {
          "internalType": "string",
          "name": "",
          "type": "string"
        }
      ],
      "stateMutability": "view",
      "type": "function"
    },
    {
      "inputs": [],
      "name": "totalSupply",
      "outputs": [
        {
          "internalType": "uint256",
          "name": "",
          "type": "uint256"
        }
      ],
      "stateMutability": "view",
      "type": "function"
    },
    {
      "inputs": [
        {
          "internalType": "address",
          "name": "from",
          "type": "address"
        },
        {
          "internalType": "address",
          "name": "to",
          "type": "address"
        },
        {
          "internalType": "uint256",
          "name": "tokenId",
          "type": "uint256"
        }
      ],
      "name": "transferFrom",
      "outputs": [],
      "stateMutability": "nonpayable",
      "type": "function"
    },
    {
      "inputs": [
        {
          "internalType": "address",
          "name": "newOwner",
          "type": "address"
        }
      ],
      "name": "transferOwnership",
      "outputs": [],
      "stateMutability": "nonpayable",
      "type": "function"
    },
    {
      "inputs": [],
      "name": "withdraw",
      "outputs": [],
      "stateMutability": "payable",
      "type": "function"
    }
  ],
  "bytecode": "0x60806040526040518060400160405280600581526020017f2e6a736f6e000000000000000000000000000000000000000000000000000000815250600d90805190602001906200005192919062000425565b506000600e60006101000a81548160ff0219169083151502179055506000600e60016101000a81548160ff0219169083151502179055506000600e60026101000a81548160ff021916908315150217905550612710600f5567011c37937e0800006010556005601155348015620000c757600080fd5b5060405162005015380380620050158339818101604052810190620000ed919062000547565b6040518060400160405280600c81526020017f57656254696d65466f6c6b7300000000000000000000000000000000000000008152506040518060400160405280600381526020017f575446000000000000000000000000000000000000000000000000000000000081525081600090805190602001906200017192919062000425565b5080600190805190602001906200018a92919062000425565b505050620001ad620001a1620001d760201b60201c565b620001df60201b60201c565b620001be82620002a560201b60201c565b620001cf816200035060201b60201c565b505062000760565b600033905090565b6000600a60009054906101000a900473ffffffffffffffffffffffffffffffffffffffff16905081600a60006101000a81548173ffffffffffffffffffffffffffffffffffffffff021916908373ffffffffffffffffffffffffffffffffffffffff1602179055508173ffffffffffffffffffffffffffffffffffffffff168173ffffffffffffffffffffffffffffffffffffffff167f8be0079c531659141344cd1fd0a4f28419497f9722a3daafe3b4186f6b6457e060405160405180910390a35050565b620002b5620001d760201b60201c565b73ffffffffffffffffffffffffffffffffffffffff16620002db620003fb60201b60201c565b73ffffffffffffffffffffffffffffffffffffffff161462000334576040517f08c379a00000000000000000000000000000000000000000000000000000000081526004016200032b90620005fc565b60405180910390fd5b80600b90805190602001906200034c92919062000425565b5050565b62000360620001d760201b60201c565b73ffffffffffffffffffffffffffffffffffffffff1662000386620003fb60201b60201c565b73ffffffffffffffffffffffffffffffffffffffff1614620003df576040517f08c379a0000000000000000000000000000000000000000000000000000000008152600401620003d690620005fc565b60405180910390fd5b80600c9080519060200190620003f792919062000425565b5050565b6000600a60009054906101000a900473ffffffffffffffffffffffffffffffffffffffff16905090565b8280546200043390620006cc565b90600052602060002090601f016020900481019282620004575760008555620004a3565b82601f106200047257805160ff1916838001178555620004a3565b82800160010185558215620004a3579182015b82811115620004a257825182559160200191906001019062000485565b5b509050620004b29190620004b6565b5090565b5b80821115620004d1576000816000905550600101620004b7565b5090565b6000620004ec620004e68462000652565b6200061e565b9050828152602081018484840111156200050557600080fd5b6200051284828562000696565b509392505050565b600082601f8301126200052c57600080fd5b81516200053e848260208601620004d5565b91505092915050565b600080604083850312156200055b57600080fd5b600083015167ffffffffffffffff8111156200057657600080fd5b62000584858286016200051a565b925050602083015167ffffffffffffffff811115620005a257600080fd5b620005b0858286016200051a565b9150509250929050565b6000620005c960208362000685565b91507f4f776e61626c653a2063616c6c6572206973206e6f7420746865206f776e65726000830152602082019050919050565b600060208201905081810360008301526200061781620005ba565b9050919050565b6000604051905081810181811067ffffffffffffffff8211171562000648576200064762000731565b5b8060405250919050565b600067ffffffffffffffff82111562000670576200066f62000731565b5b601f19601f8301169050602081019050919050565b600082825260208201905092915050565b60005b83811015620006b657808201518184015260208101905062000699565b83811115620006c6576000848401525b50505050565b60006002820490506001821680620006e557607f821691505b60208210811415620006fc57620006fb62000702565b5b50919050565b7f4e487b7100000000000000000000000000000000000000000000000000000000600052602260045260246000fd5b7f4e487b7100000000000000000000000000000000000000000000000000000000600052604160045260246000fd5b6148a580620007706000396000f3fe6080604052600436106102305760003560e01c806370a082311161012e578063b88d4fde116100ab578063efd0cbf91161006f578063efd0cbf914610833578063f2c4ce1e1461084f578063f2fde38b14610878578063f6dc6bf8146108a1578063fa9b7018146108ca57610230565b8063b88d4fde1461073c578063c3efe64814610765578063c87b56dd14610790578063e0a80853146107cd578063e985e9c5146107f657610230565b80638da5cb5b116100f25780638da5cb5b1461067857806391b7f5ed146106a357806395d89b41146106cc578063a22cb465146106f7578063b49931521461072057610230565b806370a08231146105a5578063715018a6146105e2578063819b25ba146105f95780638bc9a4c6146106225780638d859f3e1461064d57610230565b80632f745c59116101bc57806345ecfb171161018057806345ecfb17146104ac5780634f6ccce7146104d7578063518302271461051457806355f804b31461053f5780636352211e1461056857610230565b80632f745c59146103d457806330ca9fd81461041157806332cb6b0c1461044e5780633ccfd60b1461047957806342842e0e1461048357610230565b80630da619a0116102035780630da619a01461030357806318160ddd1461032c5780631e84c4131461035757806323b872dd1461038257806328cad13d146103ab57610230565b806301ffc9a71461023557806306fdde0314610272578063081812fc1461029d578063095ea7b3146102da575b600080fd5b34801561024157600080fd5b5061025c600480360381019061025791906135b2565b6108f5565b604051610269919061403b565b60405180910390f35b34801561027e57600080fd5b5061028761096f565b6040516102949190614056565b60405180910390f35b3480156102a957600080fd5b506102c460048036038101906102bf9190613645565b610a01565b6040516102d19190613fd4565b60405180910390f35b3480156102e657600080fd5b5061030160048036038101906102fc91906134f5565b610a86565b005b34801561030f57600080fd5b5061032a60048036038101906103259190613589565b610b9e565b005b34801561033857600080fd5b50610341610c37565b60405161034e9190614358565b60405180910390f35b34801561036357600080fd5b5061036c610c44565b604051610379919061403b565b60405180910390f35b34801561038e57600080fd5b506103a960048036038101906103a491906133ef565b610c57565b005b3480156103b757600080fd5b506103d260048036038101906103cd9190613589565b610cb7565b005b3480156103e057600080fd5b506103fb60048036038101906103f691906134f5565b610d50565b6040516104089190614358565b60405180910390f35b34801561041d57600080fd5b506104386004803603810190610433919061338a565b610df5565b6040516104459190614373565b60405180910390f35b34801561045a57600080fd5b50610463610e4b565b6040516104709190614358565b60405180910390f35b610481610e51565b005b34801561048f57600080fd5b506104aa60048036038101906104a591906133ef565b610f1c565b005b3480156104b857600080fd5b506104c1610f3c565b6040516104ce919061403b565b60405180910390f35b3480156104e357600080fd5b506104fe60048036038101906104f99190613645565b610f4f565b60405161050b9190614358565b60405180910390f35b34801561052057600080fd5b50610529610fe6565b604051610536919061403b565b60405180910390f35b34801561054b57600080fd5b5061056660048036038101906105619190613604565b610ff9565b005b34801561057457600080fd5b5061058f600480360381019061058a9190613645565b61108f565b60405161059c9190613fd4565b60405180910390f35b3480156105b157600080fd5b506105cc60048036038101906105c7919061338a565b611141565b6040516105d99190614358565b60405180910390f35b3480156105ee57600080fd5b506105f76111f9565b005b34801561060557600080fd5b50610620600480360381019061061b9190613645565b611281565b005b34801561062e57600080fd5b50610637611341565b604051610644919061403b565b60405180910390f35b34801561065957600080fd5b50610662611358565b60405161066f9190614358565b60405180910390f35b34801561068457600080fd5b5061068d61135e565b60405161069a9190613fd4565b60405180910390f35b3480156106af57600080fd5b506106ca60048036038101906106c59190613645565b611388565b005b3480156106d857600080fd5b506106e161140e565b6040516106ee9190614056565b60405180910390f35b34801561070357600080fd5b5061071e600480360381019061071991906134b9565b6114a0565b005b61073a6004803603810190610735919061366e565b6114b6565b005b34801561074857600080fd5b50610763600480360381019061075e919061343e565b6116fa565b005b34801561077157600080fd5b5061077a61175c565b604051610787919061403b565b60405180910390f35b34801561079c57600080fd5b506107b760048036038101906107b29190613645565b611773565b6040516107c49190614056565b60405180910390f35b3480156107d957600080fd5b506107f460048036038101906107ef9190613589565b6118cc565b005b34801561080257600080fd5b5061081d600480360381019061081891906133b3565b611965565b60405161082a919061403b565b60405180910390f35b61084d60048036038101906108489190613645565b6119f9565b005b34801561085b57600080fd5b5061087660048036038101906108719190613604565b611b70565b005b34801561088457600080fd5b5061089f600480360381019061089a919061338a565b611c06565b005b3480156108ad57600080fd5b506108c860048036038101906108c39190613531565b611cfe565b005b3480156108d657600080fd5b506108df611e46565b6040516108ec9190614358565b60405180910390f35b60007f780e9d63000000000000000000000000000000000000000000000000000000007bffffffffffffffffffffffffffffffffffffffffffffffffffffffff1916827bffffffffffffffffffffffffffffffffffffffffffffffffffffffff19161480610968575061096782611e4c565b5b9050919050565b60606000805461097e90614683565b80601f01602080910402602001604051908101604052809291908181526020018280546109aa90614683565b80156109f75780601f106109cc576101008083540402835291602001916109f7565b820191906000526020600020905b8154815290600101906020018083116109da57829003601f168201915b5050505050905090565b6000610a0c82611f2e565b610a4b576040517f08c379a0000000000000000000000000000000000000000000000000000000008152600401610a4290614258565b60405180910390fd5b6004600083815260200190815260200160002060009054906101000a900473ffffffffffffffffffffffffffffffffffffffff169050919050565b6000610a918261108f565b90508073ffffffffffffffffffffffffffffffffffffffff168373ffffffffffffffffffffffffffffffffffffffff161415610b02576040517f08c379a0000000000000000000000000000000000000000000000000000000008152600401610af9906142b8565b60405180910390fd5b8073ffffffffffffffffffffffffffffffffffffffff16610b21611f9a565b73ffffffffffffffffffffffffffffffffffffffff161480610b505750610b4f81610b4a611f9a565b611965565b5b610b8f576040517f08c379a0000000000000000000000000000000000000000000000000000000008152600401610b86906141b8565b60405180910390fd5b610b998383611fa2565b505050565b610ba6611f9a565b73ffffffffffffffffffffffffffffffffffffffff16610bc461135e565b73ffffffffffffffffffffffffffffffffffffffff1614610c1a576040517f08c379a0000000000000000000000000000000000000000000000000000000008152600401610c1190614278565b60405180910390fd5b80600e60006101000a81548160ff02191690831515021790555050565b6000600880549050905090565b600e60019054906101000a900460ff1681565b610c68610c62611f9a565b8261205b565b610ca7576040517f08c379a0000000000000000000000000000000000000000000000000000000008152600401610c9e906142d8565b60405180910390fd5b610cb2838383612139565b505050565b610cbf611f9a565b73ffffffffffffffffffffffffffffffffffffffff16610cdd61135e565b73ffffffffffffffffffffffffffffffffffffffff1614610d33576040517f08c379a0000000000000000000000000000000000000000000000000000000008152600401610d2a90614278565b60405180910390fd5b80600e60016101000a81548160ff02191690831515021790555050565b6000610d5b83611141565b8210610d9c576040517f08c379a0000000000000000000000000000000000000000000000000000000008152600401610d9390614078565b60405180910390fd5b600660008473ffffffffffffffffffffffffffffffffffffffff1673ffffffffffffffffffffffffffffffffffffffff168152602001908152602001600020600083815260200190815260200160002054905092915050565b6000601260008373ffffffffffffffffffffffffffffffffffffffff1673ffffffffffffffffffffffffffffffffffffffff16815260200190815260200160002060009054906101000a900460ff169050919050565b600f5481565b610e59611f9a565b73ffffffffffffffffffffffffffffffffffffffff16610e7761135e565b73ffffffffffffffffffffffffffffffffffffffff1614610ecd576040517f08c379a0000000000000000000000000000000000000000000000000000000008152600401610ec490614278565b60405180910390fd5b60004790503373ffffffffffffffffffffffffffffffffffffffff166108fc829081150290604051600060405180830381858888f19350505050158015610f18573d6000803e3d6000fd5b5050565b610f37838383604051806020016040528060008152506116fa565b505050565b600e60009054906101000a900460ff1681565b6000610f59610c37565b8210610f9a576040517f08c379a0000000000000000000000000000000000000000000000000000000008152600401610f91906142f8565b60405180910390fd5b60088281548110610fd4577f4e487b7100000000000000000000000000000000000000000000000000000000600052603260045260246000fd5b90600052602060002001549050919050565b600e60029054906101000a900460ff1681565b611001611f9a565b73ffffffffffffffffffffffffffffffffffffffff1661101f61135e565b73ffffffffffffffffffffffffffffffffffffffff1614611075576040517f08c379a000000000000000000000000000000000000000000000000000000000815260040161106c90614278565b60405180910390fd5b80600b908051906020019061108b92919061314f565b5050565b6000806002600084815260200190815260200160002060009054906101000a900473ffffffffffffffffffffffffffffffffffffffff169050600073ffffffffffffffffffffffffffffffffffffffff168173ffffffffffffffffffffffffffffffffffffffff161415611138576040517f08c379a000000000000000000000000000000000000000000000000000000000815260040161112f906141f8565b60405180910390fd5b80915050919050565b60008073ffffffffffffffffffffffffffffffffffffffff168273ffffffffffffffffffffffffffffffffffffffff1614156111b2576040517f08c379a00000000000000000000000000000000000000000000000000000000081526004016111a9906141d8565b60405180910390fd5b600360008373ffffffffffffffffffffffffffffffffffffffff1673ffffffffffffffffffffffffffffffffffffffff168152602001908152602001600020549050919050565b611201611f9a565b73ffffffffffffffffffffffffffffffffffffffff1661121f61135e565b73ffffffffffffffffffffffffffffffffffffffff1614611275576040517f08c379a000000000000000000000000000000000000000000000000000000000815260040161126c90614278565b60405180910390fd5b61127f6000612395565b565b611289611f9a565b73ffffffffffffffffffffffffffffffffffffffff166112a761135e565b73ffffffffffffffffffffffffffffffffffffffff16146112fd576040517f08c379a00000000000000000000000000000000000000000000000000000000081526004016112f490614278565b60405180910390fd5b6000611307610c37565b905060005b8281101561133c576113293382846113249190614477565b61245b565b8080611334906146b5565b91505061130c565b505050565b6000600e60019054906101000a900460ff16905090565b60105481565b6000600a60009054906101000a900473ffffffffffffffffffffffffffffffffffffffff16905090565b611390611f9a565b73ffffffffffffffffffffffffffffffffffffffff166113ae61135e565b73ffffffffffffffffffffffffffffffffffffffff1614611404576040517f08c379a00000000000000000000000000000000000000000000000000000000081526004016113fb90614278565b60405180910390fd5b8060108190555050565b60606001805461141d90614683565b80601f016020809104026020016040519081016040528092919081815260200182805461144990614683565b80156114965780601f1061146b57610100808354040283529160200191611496565b820191906000526020600020905b81548152906001019060200180831161147957829003601f168201915b5050505050905090565b6114b26114ab611f9a565b8383612479565b5050565b60006114c0610c37565b9050600e60009054906101000a900460ff16611511576040517f08c379a000000000000000000000000000000000000000000000000000000000815260040161150890614318565b60405180910390fd5b601260003373ffffffffffffffffffffffffffffffffffffffff1673ffffffffffffffffffffffffffffffffffffffff16815260200190815260200160002060009054906101000a900460ff1660ff168260ff1611156115a6576040517f08c379a000000000000000000000000000000000000000000000000000000000815260040161159d90614198565b60405180910390fd5b600f548260ff16826115b89190614477565b11156115f9576040517f08c379a00000000000000000000000000000000000000000000000000000000081526004016115f0906140d8565b60405180910390fd5b348260ff1660105461160b91906144fe565b111561164c576040517f08c379a000000000000000000000000000000000000000000000000000000000815260040161164390614338565b60405180910390fd5b81601260003373ffffffffffffffffffffffffffffffffffffffff1673ffffffffffffffffffffffffffffffffffffffff16815260200190815260200160002060008282829054906101000a900460ff166116a7919061458c565b92506101000a81548160ff021916908360ff16021790555060005b8260ff168110156116f5576116e23382846116dd9190614477565b61245b565b80806116ed906146b5565b9150506116c2565b505050565b61170b611705611f9a565b8361205b565b61174a576040517f08c379a0000000000000000000000000000000000000000000000000000000008152600401611741906142d8565b60405180910390fd5b611756848484846125e6565b50505050565b6000600e60009054906101000a900460ff16905090565b606061177e82611f2e565b6117bd576040517f08c379a00000000000000000000000000000000000000000000000000000000081526004016117b490614118565b60405180910390fd5b60001515600e60029054906101000a900460ff161515141561186b57600c80546117e690614683565b80601f016020809104026020016040519081016040528092919081815260200182805461181290614683565b801561185f5780601f106118345761010080835404028352916020019161185f565b820191906000526020600020905b81548152906001019060200180831161184257829003601f168201915b505050505090506118c7565b6000611875612642565b9050600081511161189557604051806020016040528060008152506118c3565b8061189f846126d4565b600d6040516020016118b393929190613fa3565b6040516020818303038152906040525b9150505b919050565b6118d4611f9a565b73ffffffffffffffffffffffffffffffffffffffff166118f261135e565b73ffffffffffffffffffffffffffffffffffffffff1614611948576040517f08c379a000000000000000000000000000000000000000000000000000000000815260040161193f90614278565b60405180910390fd5b80600e60026101000a81548160ff02191690831515021790555050565b6000600560008473ffffffffffffffffffffffffffffffffffffffff1673ffffffffffffffffffffffffffffffffffffffff16815260200190815260200160002060008373ffffffffffffffffffffffffffffffffffffffff1673ffffffffffffffffffffffffffffffffffffffff16815260200190815260200160002060009054906101000a900460ff16905092915050565b6000611a03610c37565b9050600e60019054906101000a900460ff16611a54576040517f08c379a0000000000000000000000000000000000000000000000000000000008152600401611a4b90614218565b60405180910390fd5b601154821115611a99576040517f08c379a0000000000000000000000000000000000000000000000000000000008152600401611a9090614198565b60405180910390fd5b600f548282611aa89190614477565b1115611ae9576040517f08c379a0000000000000000000000000000000000000000000000000000000008152600401611ae0906140d8565b60405180910390fd5b3482601054611af891906144fe565b1115611b39576040517f08c379a0000000000000000000000000000000000000000000000000000000008152600401611b3090614338565b60405180910390fd5b60005b828111611b6b57611b58338284611b539190614477565b61245b565b8080611b63906146b5565b915050611b3c565b505050565b611b78611f9a565b73ffffffffffffffffffffffffffffffffffffffff16611b9661135e565b73ffffffffffffffffffffffffffffffffffffffff1614611bec576040517f08c379a0000000000000000000000000000000000000000000000000000000008152600401611be390614278565b60405180910390fd5b80600c9080519060200190611c0292919061314f565b5050565b611c0e611f9a565b73ffffffffffffffffffffffffffffffffffffffff16611c2c61135e565b73ffffffffffffffffffffffffffffffffffffffff1614611c82576040517f08c379a0000000000000000000000000000000000000000000000000000000008152600401611c7990614278565b60405180910390fd5b600073ffffffffffffffffffffffffffffffffffffffff168173ffffffffffffffffffffffffffffffffffffffff161415611cf2576040517f08c379a0000000000000000000000000000000000000000000000000000000008152600401611ce9906140b8565b60405180910390fd5b611cfb81612395565b50565b611d06611f9a565b73ffffffffffffffffffffffffffffffffffffffff16611d2461135e565b73ffffffffffffffffffffffffffffffffffffffff1614611d7a576040517f08c379a0000000000000000000000000000000000000000000000000000000008152600401611d7190614278565b60405180910390fd5b60005b83839050811015611e40578160126000868685818110611dc6577f4e487b7100000000000000000000000000000000000000000000000000000000600052603260045260246000fd5b9050602002016020810190611ddb919061338a565b73ffffffffffffffffffffffffffffffffffffffff1673ffffffffffffffffffffffffffffffffffffffff16815260200190815260200160002060006101000a81548160ff021916908360ff1602179055508080611e38906146b5565b915050611d7d565b50505050565b60115481565b60007f80ac58cd000000000000000000000000000000000000000000000000000000007bffffffffffffffffffffffffffffffffffffffffffffffffffffffff1916827bffffffffffffffffffffffffffffffffffffffffffffffffffffffff19161480611f1757507f5b5e139f000000000000000000000000000000000000000000000000000000007bffffffffffffffffffffffffffffffffffffffffffffffffffffffff1916827bffffffffffffffffffffffffffffffffffffffffffffffffffffffff1916145b80611f275750611f2682612881565b5b9050919050565b60008073ffffffffffffffffffffffffffffffffffffffff166002600084815260200190815260200160002060009054906101000a900473ffffffffffffffffffffffffffffffffffffffff1673ffffffffffffffffffffffffffffffffffffffff1614159050919050565b600033905090565b816004600083815260200190815260200160002060006101000a81548173ffffffffffffffffffffffffffffffffffffffff021916908373ffffffffffffffffffffffffffffffffffffffff160217905550808273ffffffffffffffffffffffffffffffffffffffff166120158361108f565b73ffffffffffffffffffffffffffffffffffffffff167f8c5be1e5ebec7d5bd14f71427d1e84f3dd0314c0f7b2291e5b200ac8c7c3b92560405160405180910390a45050565b600061206682611f2e565b6120a5576040517f08c379a000000000000000000000000000000000000000000000000000000000815260040161209c90614178565b60405180910390fd5b60006120b08361108f565b90508073ffffffffffffffffffffffffffffffffffffffff168473ffffffffffffffffffffffffffffffffffffffff16148061211f57508373ffffffffffffffffffffffffffffffffffffffff1661210784610a01565b73ffffffffffffffffffffffffffffffffffffffff16145b80612130575061212f8185611965565b5b91505092915050565b8273ffffffffffffffffffffffffffffffffffffffff166121598261108f565b73ffffffffffffffffffffffffffffffffffffffff16146121af576040517f08c379a00000000000000000000000000000000000000000000000000000000081526004016121a690614298565b60405180910390fd5b600073ffffffffffffffffffffffffffffffffffffffff168273ffffffffffffffffffffffffffffffffffffffff16141561221f576040517f08c379a000000000000000000000000000000000000000000000000000000000815260040161221690614138565b60405180910390fd5b61222a8383836128eb565b612235600082611fa2565b6001600360008573ffffffffffffffffffffffffffffffffffffffff1673ffffffffffffffffffffffffffffffffffffffff16815260200190815260200160002060008282546122859190614558565b925050819055506001600360008473ffffffffffffffffffffffffffffffffffffffff1673ffffffffffffffffffffffffffffffffffffffff16815260200190815260200160002060008282546122dc9190614477565b92505081905550816002600083815260200190815260200160002060006101000a81548173ffffffffffffffffffffffffffffffffffffffff021916908373ffffffffffffffffffffffffffffffffffffffff160217905550808273ffffffffffffffffffffffffffffffffffffffff168473ffffffffffffffffffffffffffffffffffffffff167fddf252ad1be2c89b69c2b068fc378daa952ba7f163c4a11628f55a4df523b3ef60405160405180910390a4505050565b6000600a60009054906101000a900473ffffffffffffffffffffffffffffffffffffffff16905081600a60006101000a81548173ffffffffffffffffffffffffffffffffffffffff021916908373ffffffffffffffffffffffffffffffffffffffff1602179055508173ffffffffffffffffffffffffffffffffffffffff168173ffffffffffffffffffffffffffffffffffffffff167f8be0079c531659141344cd1fd0a4f28419497f9722a3daafe3b4186f6b6457e060405160405180910390a35050565b6124758282604051806020016040528060008152506129ff565b5050565b8173ffffffffffffffffffffffffffffffffffffffff168373ffffffffffffffffffffffffffffffffffffffff1614156124e8576040517f08c379a00000000000000000000000000000000000000000000000000000000081526004016124df90614158565b60405180910390fd5b80600560008573ffffffffffffffffffffffffffffffffffffffff1673ffffffffffffffffffffffffffffffffffffffff16815260200190815260200160002060008473ffffffffffffffffffffffffffffffffffffffff1673ffffffffffffffffffffffffffffffffffffffff16815260200190815260200160002060006101000a81548160ff0219169083151502179055508173ffffffffffffffffffffffffffffffffffffffff168373ffffffffffffffffffffffffffffffffffffffff167f17307eab39ab6107e8899845ad3d59bd9653f200f220920489ca2b5937696c31836040516125d9919061403b565b60405180910390a3505050565b6125f1848484612139565b6125fd84848484612a5a565b61263c576040517f08c379a000000000000000000000000000000000000000000000000000000000815260040161263390614098565b60405180910390fd5b50505050565b6060600b805461265190614683565b80601f016020809104026020016040519081016040528092919081815260200182805461267d90614683565b80156126ca5780601f1061269f576101008083540402835291602001916126ca565b820191906000526020600020905b8154815290600101906020018083116126ad57829003601f168201915b5050505050905090565b6060600082141561271c576040518060400160405280600181526020017f3000000000000000000000000000000000000000000000000000000000000000815250905061287c565b600082905060005b6000821461274e578080612737906146b5565b915050600a8261274791906144cd565b9150612724565b60008167ffffffffffffffff811115612790577f4e487b7100000000000000000000000000000000000000000000000000000000600052604160045260246000fd5b6040519080825280601f01601f1916602001820160405280156127c25781602001600182028036833780820191505090505b5090505b60008514612875576001826127db9190614558565b9150600a856127ea91906146fe565b60306127f69190614477565b60f81b818381518110612832577f4e487b7100000000000000000000000000000000000000000000000000000000600052603260045260246000fd5b60200101907effffffffffffffffffffffffffffffffffffffffffffffffffffffffffffff1916908160001a905350600a8561286e91906144cd565b94506127c6565b8093505050505b919050565b60007f01ffc9a7000000000000000000000000000000000000000000000000000000007bffffffffffffffffffffffffffffffffffffffffffffffffffffffff1916827bffffffffffffffffffffffffffffffffffffffffffffffffffffffff1916149050919050565b6128f6838383612bf1565b600073ffffffffffffffffffffffffffffffffffffffff168373ffffffffffffffffffffffffffffffffffffffff1614156129395761293481612bf6565b612978565b8173ffffffffffffffffffffffffffffffffffffffff168373ffffffffffffffffffffffffffffffffffffffff1614612977576129768382612c3f565b5b5b600073ffffffffffffffffffffffffffffffffffffffff168273ffffffffffffffffffffffffffffffffffffffff1614156129bb576129b681612dac565b6129fa565b8273ffffffffffffffffffffffffffffffffffffffff168273ffffffffffffffffffffffffffffffffffffffff16146129f9576129f88282612eef565b5b5b505050565b612a098383612f6e565b612a166000848484612a5a565b612a55576040517f08c379a0000000000000000000000000000000000000000000000000000000008152600401612a4c90614098565b60405180910390fd5b505050565b6000612a7b8473ffffffffffffffffffffffffffffffffffffffff1661313c565b15612be4578373ffffffffffffffffffffffffffffffffffffffff1663150b7a02612aa4611f9a565b8786866040518563ffffffff1660e01b8152600401612ac69493929190613fef565b602060405180830381600087803b158015612ae057600080fd5b505af1925050508015612b1157506040513d601f19601f82011682018060405250810190612b0e91906135db565b60015b612b94573d8060008114612b41576040519150601f19603f3d011682016040523d82523d6000602084013e612b46565b606091505b50600081511415612b8c576040517f08c379a0000000000000000000000000000000000000000000000000000000008152600401612b8390614098565b60405180910390fd5b805181602001fd5b63150b7a0260e01b7bffffffffffffffffffffffffffffffffffffffffffffffffffffffff1916817bffffffffffffffffffffffffffffffffffffffffffffffffffffffff191614915050612be9565b600190505b949350505050565b505050565b6008805490506009600083815260200190815260200160002081905550600881908060018154018082558091505060019003906000526020600020016000909190919091505550565b60006001612c4c84611141565b612c569190614558565b9050600060076000848152602001908152602001600020549050818114612d3b576000600660008673ffffffffffffffffffffffffffffffffffffffff1673ffffffffffffffffffffffffffffffffffffffff168152602001908152602001600020600084815260200190815260200160002054905080600660008773ffffffffffffffffffffffffffffffffffffffff1673ffffffffffffffffffffffffffffffffffffffff168152602001908152602001600020600084815260200190815260200160002081905550816007600083815260200190815260200160002081905550505b6007600084815260200190815260200160002060009055600660008573ffffffffffffffffffffffffffffffffffffffff1673ffffffffffffffffffffffffffffffffffffffff16815260200190815260200160002060008381526020019081526020016000206000905550505050565b60006001600880549050612dc09190614558565b9050600060096000848152602001908152602001600020549050600060088381548110612e16577f4e487b7100000000000000000000000000000000000000000000000000000000600052603260045260246000fd5b906000526020600020015490508060088381548110612e5e577f4e487b7100000000000000000000000000000000000000000000000000000000600052603260045260246000fd5b906000526020600020018190555081600960008381526020019081526020016000208190555060096000858152602001908152602001600020600090556008805480612ed3577f4e487b7100000000000000000000000000000000000000000000000000000000600052603160045260246000fd5b6001900381819060005260206000200160009055905550505050565b6000612efa83611141565b905081600660008573ffffffffffffffffffffffffffffffffffffffff1673ffffffffffffffffffffffffffffffffffffffff168152602001908152602001600020600083815260200190815260200160002081905550806007600084815260200190815260200160002081905550505050565b600073ffffffffffffffffffffffffffffffffffffffff168273ffffffffffffffffffffffffffffffffffffffff161415612fde576040517f08c379a0000000000000000000000000000000000000000000000000000000008152600401612fd590614238565b60405180910390fd5b612fe781611f2e565b15613027576040517f08c379a000000000000000000000000000000000000000000000000000000000815260040161301e906140f8565b60405180910390fd5b613033600083836128eb565b6001600360008473ffffffffffffffffffffffffffffffffffffffff1673ffffffffffffffffffffffffffffffffffffffff16815260200190815260200160002060008282546130839190614477565b92505081905550816002600083815260200190815260200160002060006101000a81548173ffffffffffffffffffffffffffffffffffffffff021916908373ffffffffffffffffffffffffffffffffffffffff160217905550808273ffffffffffffffffffffffffffffffffffffffff16600073ffffffffffffffffffffffffffffffffffffffff167fddf252ad1be2c89b69c2b068fc378daa952ba7f163c4a11628f55a4df523b3ef60405160405180910390a45050565b600080823b905060008111915050919050565b82805461315b90614683565b90600052602060002090601f01602090048101928261317d57600085556131c4565b82601f1061319657805160ff19168380011785556131c4565b828001600101855582156131c4579182015b828111156131c35782518255916020019190600101906131a8565b5b5090506131d191906131d5565b5090565b5b808211156131ee5760008160009055506001016131d6565b5090565b6000613205613200846143bf565b61438e565b90508281526020810184848401111561321d57600080fd5b613228848285614641565b509392505050565b600061324361323e846143ef565b61438e565b90508281526020810184848401111561325b57600080fd5b613266848285614641565b509392505050565b60008135905061327d816147fc565b92915050565b60008083601f84011261329557600080fd5b8235905067ffffffffffffffff8111156132ae57600080fd5b6020830191508360208202830111156132c657600080fd5b9250929050565b6000813590506132dc81614813565b92915050565b6000813590506132f18161482a565b92915050565b6000815190506133068161482a565b92915050565b600082601f83011261331d57600080fd5b813561332d8482602086016131f2565b91505092915050565b600082601f83011261334757600080fd5b8135613357848260208601613230565b91505092915050565b60008135905061336f81614841565b92915050565b60008135905061338481614858565b92915050565b60006020828403121561339c57600080fd5b60006133aa8482850161326e565b91505092915050565b600080604083850312156133c657600080fd5b60006133d48582860161326e565b92505060206133e58582860161326e565b9150509250929050565b60008060006060848603121561340457600080fd5b60006134128682870161326e565b93505060206134238682870161326e565b925050604061343486828701613360565b9150509250925092565b6000806000806080858703121561345457600080fd5b60006134628782880161326e565b94505060206134738782880161326e565b935050604061348487828801613360565b925050606085013567ffffffffffffffff8111156134a157600080fd5b6134ad8782880161330c565b91505092959194509250565b600080604083850312156134cc57600080fd5b60006134da8582860161326e565b92505060206134eb858286016132cd565b9150509250929050565b6000806040838503121561350857600080fd5b60006135168582860161326e565b925050602061352785828601613360565b9150509250929050565b60008060006040848603121561354657600080fd5b600084013567ffffffffffffffff81111561356057600080fd5b61356c86828701613283565b9350935050602061357f86828701613375565b9150509250925092565b60006020828403121561359b57600080fd5b60006135a9848285016132cd565b91505092915050565b6000602082840312156135c457600080fd5b60006135d2848285016132e2565b91505092915050565b6000602082840312156135ed57600080fd5b60006135fb848285016132f7565b91505092915050565b60006020828403121561361657600080fd5b600082013567ffffffffffffffff81111561363057600080fd5b61363c84828501613336565b91505092915050565b60006020828403121561365757600080fd5b600061366584828501613360565b91505092915050565b60006020828403121561368057600080fd5b600061368e84828501613375565b91505092915050565b6136a0816145c0565b82525050565b6136af816145d2565b82525050565b60006136c082614434565b6136ca818561444a565b93506136da818560208601614650565b6136e3816147eb565b840191505092915050565b60006136f98261443f565b613703818561445b565b9350613713818560208601614650565b61371c816147eb565b840191505092915050565b60006137328261443f565b61373c818561446c565b935061374c818560208601614650565b80840191505092915050565b6000815461376581614683565b61376f818661446c565b9450600182166000811461378a576001811461379b576137ce565b60ff198316865281860193506137ce565b6137a48561441f565b60005b838110156137c6578154818901526001820191506020810190506137a7565b838801955050505b50505092915050565b60006137e4602b8361445b565b91507f455243373231456e756d657261626c653a206f776e657220696e646578206f7560008301527f74206f6620626f756e64730000000000000000000000000000000000000000006020830152604082019050919050565b600061384a60328361445b565b91507f4552433732313a207472616e7366657220746f206e6f6e20455243373231526560008301527f63656976657220696d706c656d656e74657200000000000000000000000000006020830152604082019050919050565b60006138b060268361445b565b91507f4f776e61626c653a206e6577206f776e657220697320746865207a65726f206160008301527f64647265737300000000000000000000000000000000000000000000000000006020830152604082019050919050565b600061391660208361445b565b91507f507572636861736520776f756c6420657863656564206d617820746f6b656e736000830152602082019050919050565b6000613956601c8361445b565b91507f4552433732313a20746f6b656e20616c7265616479206d696e746564000000006000830152602082019050919050565b600061399660138361445b565b91507f496e6578697374656e7420546f6b656e204944000000000000000000000000006000830152602082019050919050565b60006139d660248361445b565b91507f4552433732313a207472616e7366657220746f20746865207a65726f2061646460008301527f72657373000000000000000000000000000000000000000000000000000000006020830152604082019050919050565b6000613a3c60198361445b565b91507f4552433732313a20617070726f766520746f2063616c6c6572000000000000006000830152602082019050919050565b6000613a7c602c8361445b565b91507f4552433732313a206f70657261746f7220717565727920666f72206e6f6e657860008301527f697374656e7420746f6b656e00000000000000000000000000000000000000006020830152604082019050919050565b6000613ae260108361445b565b91507f446f6e27742062652067726565647921000000000000000000000000000000006000830152602082019050919050565b6000613b2260388361445b565b91507f4552433732313a20617070726f76652063616c6c6572206973206e6f74206f7760008301527f6e6572206e6f7220617070726f76656420666f7220616c6c00000000000000006020830152604082019050919050565b6000613b88602a8361445b565b91507f4552433732313a2062616c616e636520717565727920666f7220746865207a6560008301527f726f2061646472657373000000000000000000000000000000000000000000006020830152604082019050919050565b6000613bee60298361445b565b91507f4552433732313a206f776e657220717565727920666f72206e6f6e657869737460008301527f656e7420746f6b656e00000000000000000000000000000000000000000000006020830152604082019050919050565b6000613c5460198361445b565b91507f5075626c69632073616c65206973206e6f7420616374697665000000000000006000830152602082019050919050565b6000613c9460208361445b565b91507f4552433732313a206d696e7420746f20746865207a65726f20616464726573736000830152602082019050919050565b6000613cd4602c8361445b565b91507f4552433732313a20617070726f76656420717565727920666f72206e6f6e657860008301527f697374656e7420746f6b656e00000000000000000000000000000000000000006020830152604082019050919050565b6000613d3a60208361445b565b91507f4f776e61626c653a2063616c6c6572206973206e6f7420746865206f776e65726000830152602082019050919050565b6000613d7a60298361445b565b91507f4552433732313a207472616e73666572206f6620746f6b656e2074686174206960008301527f73206e6f74206f776e00000000000000000000000000000000000000000000006020830152604082019050919050565b6000613de060218361445b565b91507f4552433732313a20617070726f76616c20746f2063757272656e74206f776e6560008301527f72000000000000000000000000000000000000000000000000000000000000006020830152604082019050919050565b6000613e4660318361445b565b91507f4552433732313a207472616e736665722063616c6c6572206973206e6f74206f60008301527f776e6572206e6f7220617070726f7665640000000000000000000000000000006020830152604082019050919050565b6000613eac602c8361445b565b91507f455243373231456e756d657261626c653a20676c6f62616c20696e646578206f60008301527f7574206f6620626f756e647300000000000000000000000000000000000000006020830152604082019050919050565b6000613f1260108361445b565b91507f574c206973206e6f7420616374697665000000000000000000000000000000006000830152602082019050919050565b6000613f5260178361445b565b91507f4554482073656e74206973206e6f7420636f72726563740000000000000000006000830152602082019050919050565b613f8e8161462a565b82525050565b613f9d81614634565b82525050565b6000613faf8286613727565b9150613fbb8285613727565b9150613fc78284613758565b9150819050949350505050565b6000602082019050613fe96000830184613697565b92915050565b60006080820190506140046000830187613697565b6140116020830186613697565b61401e6040830185613f85565b818103606083015261403081846136b5565b905095945050505050565b600060208201905061405060008301846136a6565b92915050565b6000602082019050818103600083015261407081846136ee565b905092915050565b60006020820190508181036000830152614091816137d7565b9050919050565b600060208201905081810360008301526140b18161383d565b9050919050565b600060208201905081810360008301526140d1816138a3565b9050919050565b600060208201905081810360008301526140f181613909565b9050919050565b6000602082019050818103600083015261411181613949565b9050919050565b6000602082019050818103600083015261413181613989565b9050919050565b60006020820190508181036000830152614151816139c9565b9050919050565b6000602082019050818103600083015261417181613a2f565b9050919050565b6000602082019050818103600083015261419181613a6f565b9050919050565b600060208201905081810360008301526141b181613ad5565b9050919050565b600060208201905081810360008301526141d181613b15565b9050919050565b600060208201905081810360008301526141f181613b7b565b9050919050565b6000602082019050818103600083015261421181613be1565b9050919050565b6000602082019050818103600083015261423181613c47565b9050919050565b6000602082019050818103600083015261425181613c87565b9050919050565b6000602082019050818103600083015261427181613cc7565b9050919050565b6000602082019050818103600083015261429181613d2d565b9050919050565b600060208201905081810360008301526142b181613d6d565b9050919050565b600060208201905081810360008301526142d181613dd3565b9050919050565b600060208201905081810360008301526142f181613e39565b9050919050565b6000602082019050818103600083015261431181613e9f565b9050919050565b6000602082019050818103600083015261433181613f05565b9050919050565b6000602082019050818103600083015261435181613f45565b9050919050565b600060208201905061436d6000830184613f85565b92915050565b60006020820190506143886000830184613f94565b92915050565b6000604051905081810181811067ffffffffffffffff821117156143b5576143b46147bc565b5b8060405250919050565b600067ffffffffffffffff8211156143da576143d96147bc565b5b601f19601f8301169050602081019050919050565b600067ffffffffffffffff82111561440a576144096147bc565b5b601f19601f8301169050602081019050919050565b60008190508160005260206000209050919050565b600081519050919050565b600081519050919050565b600082825260208201905092915050565b600082825260208201905092915050565b600081905092915050565b60006144828261462a565b915061448d8361462a565b9250827fffffffffffffffffffffffffffffffffffffffffffffffffffffffffffffffff038211156144c2576144c161472f565b5b828201905092915050565b60006144d88261462a565b91506144e38361462a565b9250826144f3576144f261475e565b5b828204905092915050565b60006145098261462a565b91506145148361462a565b9250817fffffffffffffffffffffffffffffffffffffffffffffffffffffffffffffffff048311821515161561454d5761454c61472f565b5b828202905092915050565b60006145638261462a565b915061456e8361462a565b9250828210156145815761458061472f565b5b828203905092915050565b600061459782614634565b91506145a283614634565b9250828210156145b5576145b461472f565b5b828203905092915050565b60006145cb8261460a565b9050919050565b60008115159050919050565b60007fffffffff0000000000000000000000000000000000000000000000000000000082169050919050565b600073ffffffffffffffffffffffffffffffffffffffff82169050919050565b6000819050919050565b600060ff82169050919050565b82818337600083830152505050565b60005b8381101561466e578082015181840152602081019050614653565b8381111561467d576000848401525b50505050565b6000600282049050600182168061469b57607f821691505b602082108114156146af576146ae61478d565b5b50919050565b60006146c08261462a565b91507fffffffffffffffffffffffffffffffffffffffffffffffffffffffffffffffff8214156146f3576146f261472f565b5b600182019050919050565b60006147098261462a565b91506147148361462a565b9250826147245761472361475e565b5b828206905092915050565b7f4e487b7100000000000000000000000000000000000000000000000000000000600052601160045260246000fd5b7f4e487b7100000000000000000000000000000000000000000000000000000000600052601260045260246000fd5b7f4e487b7100000000000000000000000000000000000000000000000000000000600052602260045260246000fd5b7f4e487b7100000000000000000000000000000000000000000000000000000000600052604160045260246000fd5b6000601f19601f8301169050919050565b614805816145c0565b811461481057600080fd5b50565b61481c816145d2565b811461482757600080fd5b50565b614833816145de565b811461483e57600080fd5b50565b61484a8161462a565b811461485557600080fd5b50565b61486181614634565b811461486c57600080fd5b5056fea2646970667358221220e707989b416f4e7b30363f223a8a55cb809ea03e45b576be4c7ca751c91cd42364736f6c63430008000033",
  "linkReferences": {},
  "deployedLinkReferences": {}
}