{
    "_format": "hh-sol-artifact-1",
    "contractName": "WebTimeFolks",
    "sourceName": "contracts/WebTimeFolks.sol",
    "abi": [
        {
            "inputs": [
                {
                    "internalType": "string",
                    "name": "_initBaseURI",
                    "type": "string"
                },
                {
                    "internalType": "string",
                    "name": "_initNotRevealedUri",
                    "type": "string"
                }
            ],
            "stateMutability": "nonpayable",
            "type": "constructor"
        },
        {
            "anonymous": false,
            "inputs": [
                {
                    "indexed": true,
                    "internalType": "address",
                    "name": "owner",
                    "type": "address"
                },
                {
                    "indexed": true,
                    "internalType": "address",
                    "name": "approved",
                    "type": "address"
                },
                {
                    "indexed": true,
                    "internalType": "uint256",
                    "name": "tokenId",
                    "type": "uint256"
                }
            ],
            "name": "Approval",
            "type": "event"
        },
        {
            "anonymous": false,
            "inputs": [
                {
                    "indexed": true,
                    "internalType": "address",
                    "name": "owner",
                    "type": "address"
                },
                {
                    "indexed": true,
                    "internalType": "address",
                    "name": "operator",
                    "type": "address"
                },
                {
                    "indexed": false,
                    "internalType": "bool",
                    "name": "approved",
                    "type": "bool"
                }
            ],
            "name": "ApprovalForAll",
            "type": "event"
        },
        {
            "anonymous": false,
            "inputs": [
                {
                    "indexed": true,
                    "internalType": "address",
                    "name": "previousOwner",
                    "type": "address"
                },
                {
                    "indexed": true,
                    "internalType": "address",
                    "name": "newOwner",
                    "type": "address"
                }
            ],
            "name": "OwnershipTransferred",
            "type": "event"
        },
        {
            "anonymous": false,
            "inputs": [
                {
                    "indexed": true,
                    "internalType": "address",
                    "name": "from",
                    "type": "address"
                },
                {
                    "indexed": true,
                    "internalType": "address",
                    "name": "to",
                    "type": "address"
                },
                {
                    "indexed": true,
                    "internalType": "uint256",
                    "name": "tokenId",
                    "type": "uint256"
                }
            ],
            "name": "Transfer",
            "type": "event"
        },
        {
            "inputs": [],
            "name": "MAX_MINT_AMOUNT",
            "outputs": [
                {
                    "internalType": "uint256",
                    "name": "",
                    "type": "uint256"
                }
            ],
            "stateMutability": "view",
            "type": "function"
        },
        {
            "inputs": [],
            "name": "MAX_SUPPLY",
            "outputs": [
                {
                    "internalType": "uint256",
                    "name": "",
                    "type": "uint256"
                }
            ],
            "stateMutability": "view",
            "type": "function"
        },
        {
            "inputs": [],
            "name": "PRICE",
            "outputs": [
                {
                    "internalType": "uint256",
                    "name": "",
                    "type": "uint256"
                }
            ],
            "stateMutability": "view",
            "type": "function"
        },
        {
            "inputs": [
                {
                    "internalType": "address",
                    "name": "to",
                    "type": "address"
                },
                {
                    "internalType": "uint256",
                    "name": "tokenId",
                    "type": "uint256"
                }
            ],
            "name": "approve",
            "outputs": [],
            "stateMutability": "nonpayable",
            "type": "function"
        },
        {
            "inputs": [
                {
                    "internalType": "address",
                    "name": "owner",
                    "type": "address"
                }
            ],
            "name": "balanceOf",
            "outputs": [
                {
                    "internalType": "uint256",
                    "name": "",
                    "type": "uint256"
                }
            ],
            "stateMutability": "view",
            "type": "function"
        },
        {
            "inputs": [
                {
                    "internalType": "uint256",
                    "name": "tokenId",
                    "type": "uint256"
                }
            ],
            "name": "getApproved",
            "outputs": [
                {
                    "internalType": "address",
                    "name": "",
                    "type": "address"
                }
            ],
            "stateMutability": "view",
            "type": "function"
        },
        {
            "inputs": [
                {
                    "internalType": "address",
                    "name": "owner",
                    "type": "address"
                },
                {
                    "internalType": "address",
                    "name": "operator",
                    "type": "address"
                }
            ],
            "name": "isApprovedForAll",
            "outputs": [
                {
                    "internalType": "bool",
                    "name": "",
                    "type": "bool"
                }
            ],
            "stateMutability": "view",
            "type": "function"
        },
        {
            "inputs": [],
            "name": "isPublicSaleActive",
            "outputs": [
                {
                    "internalType": "bool",
                    "name": "",
                    "type": "bool"
                }
            ],
            "stateMutability": "view",
            "type": "function"
        },
        {
            "inputs": [],
            "name": "isWhiteListActive",
            "outputs": [
                {
                    "internalType": "bool",
                    "name": "",
                    "type": "bool"
                }
            ],
            "stateMutability": "view",
            "type": "function"
        },
        {
            "inputs": [
                {
                    "internalType": "uint256",
                    "name": "_mintAmount",
                    "type": "uint256"
                }
            ],
            "name": "mint",
            "outputs": [],
            "stateMutability": "payable",
            "type": "function"
        },
        {
            "inputs": [
                {
                    "internalType": "uint8",
                    "name": "numberOfTokens",
                    "type": "uint8"
                }
            ],
            "name": "mintWhiteList",
            "outputs": [],
            "stateMutability": "payable",
            "type": "function"
        },
        {
            "inputs": [],
            "name": "name",
            "outputs": [
                {
                    "internalType": "string",
                    "name": "",
                    "type": "string"
                }
            ],
            "stateMutability": "view",
            "type": "function"
        },
        {
            "inputs": [
                {
                    "internalType": "address",
                    "name": "addr",
                    "type": "address"
                }
            ],
            "name": "numAvailableToMint",
            "outputs": [
                {
                    "internalType": "uint8",
                    "name": "",
                    "type": "uint8"
                }
            ],
            "stateMutability": "view",
            "type": "function"
        },
        {
            "inputs": [],
            "name": "owner",
            "outputs": [
                {
                    "internalType": "address",
                    "name": "",
                    "type": "address"
                }
            ],
            "stateMutability": "view",
            "type": "function"
        },
        {
            "inputs": [
                {
                    "internalType": "uint256",
                    "name": "tokenId",
                    "type": "uint256"
                }
            ],
            "name": "ownerOf",
            "outputs": [
                {
                    "internalType": "address",
                    "name": "",
                    "type": "address"
                }
            ],
            "stateMutability": "view",
            "type": "function"
        },
        {
            "inputs": [],
            "name": "renounceOwnership",
            "outputs": [],
            "stateMutability": "nonpayable",
            "type": "function"
        },
        {
            "inputs": [
                {
                    "internalType": "uint256",
                    "name": "n",
                    "type": "uint256"
                }
            ],
            "name": "reserve",
            "outputs": [],
            "stateMutability": "nonpayable",
            "type": "function"
        },
        {
            "inputs": [],
            "name": "revealed",
            "outputs": [
                {
                    "internalType": "bool",
                    "name": "",
                    "type": "bool"
                }
            ],
            "stateMutability": "view",
            "type": "function"
        },
        {
            "inputs": [
                {
                    "internalType": "address",
                    "name": "from",
                    "type": "address"
                },
                {
                    "internalType": "address",
                    "name": "to",
                    "type": "address"
                },
                {
                    "internalType": "uint256",
                    "name": "tokenId",
                    "type": "uint256"
                }
            ],
            "name": "safeTransferFrom",
            "outputs": [],
            "stateMutability": "nonpayable",
            "type": "function"
        },
        {
            "inputs": [
                {
                    "internalType": "address",
                    "name": "from",
                    "type": "address"
                },
                {
                    "internalType": "address",
                    "name": "to",
                    "type": "address"
                },
                {
                    "internalType": "uint256",
                    "name": "tokenId",
                    "type": "uint256"
                },
                {
                    "internalType": "bytes",
                    "name": "_data",
                    "type": "bytes"
                }
            ],
            "name": "safeTransferFrom",
            "outputs": [],
            "stateMutability": "nonpayable",
            "type": "function"
        },
        {
            "inputs": [
                {
                    "internalType": "address",
                    "name": "operator",
                    "type": "address"
                },
                {
                    "internalType": "bool",
                    "name": "approved",
                    "type": "bool"
                }
            ],
            "name": "setApprovalForAll",
            "outputs": [],
            "stateMutability": "nonpayable",
            "type": "function"
        },
        {
            "inputs": [
                {
                    "internalType": "string",
                    "name": "_newBaseURI",
                    "type": "string"
                }
            ],
            "name": "setBaseURI",
            "outputs": [],
            "stateMutability": "nonpayable",
            "type": "function"
        },
        {
            "inputs": [
                {
                    "internalType": "bool",
                    "name": "_isPublicSaleActive",
                    "type": "bool"
                }
            ],
            "name": "setIsPublicSaleActive",
            "outputs": [],
            "stateMutability": "nonpayable",
            "type": "function"
        },
        {
            "inputs": [
                {
                    "internalType": "bool",
                    "name": "_isWhiteListActive",
                    "type": "bool"
                }
            ],
            "name": "setIsWhiteListActive",
            "outputs": [],
            "stateMutability": "nonpayable",
            "type": "function"
        },
        {
            "inputs": [
                {
                    "internalType": "string",
                    "name": "_notRevealedURI",
                    "type": "string"
                }
            ],
            "name": "setNotRevealedURI",
            "outputs": [],
            "stateMutability": "nonpayable",
            "type": "function"
        },
        {
            "inputs": [
                {
                    "internalType": "uint256",
                    "name": "_price",
                    "type": "uint256"
                }
            ],
            "name": "setPrice",
            "outputs": [],
            "stateMutability": "nonpayable",
            "type": "function"
        },
        {
            "inputs": [
                {
                    "internalType": "bool",
                    "name": "_revealed",
                    "type": "bool"
                }
            ],
            "name": "setRevealed",
            "outputs": [],
            "stateMutability": "nonpayable",
            "type": "function"
        },
        {
            "inputs": [
                {
                    "internalType": "address[]",
                    "name": "addresses",
                    "type": "address[]"
                },
                {
                    "internalType": "uint8",
                    "name": "numAllowedToMint",
                    "type": "uint8"
                }
            ],
            "name": "setWhiteList",
            "outputs": [],
            "stateMutability": "nonpayable",
            "type": "function"
        },
        {
            "inputs": [
                {
                    "internalType": "bytes4",
                    "name": "interfaceId",
                    "type": "bytes4"
                }
            ],
            "name": "supportsInterface",
            "outputs": [
                {
                    "internalType": "bool",
                    "name": "",
                    "type": "bool"
                }
            ],
            "stateMutability": "view",
            "type": "function"
        },
        {
            "inputs": [],
            "name": "symbol",
            "outputs": [
                {
                    "internalType": "string",
                    "name": "",
                    "type": "string"
                }
            ],
            "stateMutability": "view",
            "type": "function"
        },
        {
            "inputs": [
                {
                    "internalType": "uint256",
                    "name": "index",
                    "type": "uint256"
                }
            ],
            "name": "tokenByIndex",
            "outputs": [
                {
                    "internalType": "uint256",
                    "name": "",
                    "type": "uint256"
                }
            ],
            "stateMutability": "view",
            "type": "function"
        },
        {
            "inputs": [
                {
                    "internalType": "address",
                    "name": "owner",
                    "type": "address"
                },
                {
                    "internalType": "uint256",
                    "name": "index",
                    "type": "uint256"
                }
            ],
            "name": "tokenOfOwnerByIndex",
            "outputs": [
                {
                    "internalType": "uint256",
                    "name": "",
                    "type": "uint256"
                }
            ],
            "stateMutability": "view",
            "type": "function"
        },
        {
            "inputs": [
                {
                    "internalType": "uint256",
                    "name": "tokenId",
                    "type": "uint256"
                }
            ],
            "name": "tokenURI",
            "outputs": [
                {
                    "internalType": "string",
                    "name": "",
                    "type": "string"
                }
            ],
            "stateMutability": "view",
            "type": "function"
        },
        {
            "inputs": [],
            "name": "totalSupply",
            "outputs": [
                {
                    "internalType": "uint256",
                    "name": "",
                    "type": "uint256"
                }
            ],
            "stateMutability": "view",
            "type": "function"
        },
        {
            "inputs": [
                {
                    "internalType": "address",
                    "name": "from",
                    "type": "address"
                },
                {
                    "internalType": "address",
                    "name": "to",
                    "type": "address"
                },
                {
                    "internalType": "uint256",
                    "name": "tokenId",
                    "type": "uint256"
                }
            ],
            "name": "transferFrom",
            "outputs": [],
            "stateMutability": "nonpayable",
            "type": "function"
        },
        {
            "inputs": [
                {
                    "internalType": "address",
                    "name": "newOwner",
                    "type": "address"
                }
            ],
            "name": "transferOwnership",
            "outputs": [],
            "stateMutability": "nonpayable",
            "type": "function"
        },
        {
            "inputs": [],
            "name": "withdraw",
            "outputs": [],
            "stateMutability": "payable",
            "type": "function"
        }
    ],
    "bytecode": "0x60806040526040518060400160405280600581526020017f2e6a736f6e000000000000000000000000000000000000000000000000000000815250600d90805190602001906200005192919062000425565b506000600e60006101000a81548160ff0219169083151502179055506000600e60016101000a81548160ff0219169083151502179055506000600e60026101000a81548160ff021916908315150217905550612710600f5567011c37937e0800006010556005601155348015620000c757600080fd5b5060405162005065380380620050658339818101604052810190620000ed919062000547565b6040518060400160405280600c81526020017f57656254696d65466f6c6b7300000000000000000000000000000000000000008152506040518060400160405280600381526020017f575446000000000000000000000000000000000000000000000000000000000081525081600090805190602001906200017192919062000425565b5080600190805190602001906200018a92919062000425565b505050620001ad620001a1620001d760201b60201c565b620001df60201b60201c565b620001be82620002a560201b60201c565b620001cf816200035060201b60201c565b505062000760565b600033905090565b6000600a60009054906101000a900473ffffffffffffffffffffffffffffffffffffffff16905081600a60006101000a81548173ffffffffffffffffffffffffffffffffffffffff021916908373ffffffffffffffffffffffffffffffffffffffff1602179055508173ffffffffffffffffffffffffffffffffffffffff168173ffffffffffffffffffffffffffffffffffffffff167f8be0079c531659141344cd1fd0a4f28419497f9722a3daafe3b4186f6b6457e060405160405180910390a35050565b620002b5620001d760201b60201c565b73ffffffffffffffffffffffffffffffffffffffff16620002db620003fb60201b60201c565b73ffffffffffffffffffffffffffffffffffffffff161462000334576040517f08c379a00000000000000000000000000000000000000000000000000000000081526004016200032b90620005fc565b60405180910390fd5b80600b90805190602001906200034c92919062000425565b5050565b62000360620001d760201b60201c565b73ffffffffffffffffffffffffffffffffffffffff1662000386620003fb60201b60201c565b73ffffffffffffffffffffffffffffffffffffffff1614620003df576040517f08c379a0000000000000000000000000000000000000000000000000000000008152600401620003d690620005fc565b60405180910390fd5b80600c9080519060200190620003f792919062000425565b5050565b6000600a60009054906101000a900473ffffffffffffffffffffffffffffffffffffffff16905090565b8280546200043390620006cc565b90600052602060002090601f016020900481019282620004575760008555620004a3565b82601f106200047257805160ff1916838001178555620004a3565b82800160010185558215620004a3579182015b82811115620004a257825182559160200191906001019062000485565b5b509050620004b29190620004b6565b5090565b5b80821115620004d1576000816000905550600101620004b7565b5090565b6000620004ec620004e68462000652565b6200061e565b9050828152602081018484840111156200050557600080fd5b6200051284828562000696565b509392505050565b600082601f8301126200052c57600080fd5b81516200053e848260208601620004d5565b91505092915050565b600080604083850312156200055b57600080fd5b600083015167ffffffffffffffff8111156200057657600080fd5b62000584858286016200051a565b925050602083015167ffffffffffffffff811115620005a257600080fd5b620005b0858286016200051a565b9150509250929050565b6000620005c960208362000685565b91507f4f776e61626c653a2063616c6c6572206973206e6f7420746865206f776e65726000830152602082019050919050565b600060208201905081810360008301526200061781620005ba565b9050919050565b6000604051905081810181811067ffffffffffffffff8211171562000648576200064762000731565b5b8060405250919050565b600067ffffffffffffffff82111562000670576200066f62000731565b5b601f19601f8301169050602081019050919050565b600082825260208201905092915050565b60005b83811015620006b657808201518184015260208101905062000699565b83811115620006c6576000848401525b50505050565b60006002820490506001821680620006e557607f821691505b60208210811415620006fc57620006fb62000702565b5b50919050565b7f4e487b7100000000000000000000000000000000000000000000000000000000600052602260045260246000fd5b7f4e487b7100000000000000000000000000000000000000000000000000000000600052604160045260246000fd5b6148f580620007706000396000f3fe60806040526004361061021a5760003560e01c806370a0823111610123578063b4993152116100ab578063e985e9c51161006f578063e985e9c5146107a6578063f2c4ce1e146107e3578063f2fde38b1461080c578063f6dc6bf814610835578063fa9b70181461085e5761021a565b8063b4993152146106be578063b88d4fde146106da578063c04a283614610703578063c87b56dd14610740578063e0a808531461077d5761021a565b80638da5cb5b116100f25780638da5cb5b146105fa57806391b7f5ed1461062557806395d89b411461064e578063a0712d6814610679578063a22cb465146106955761021a565b806370a0823114610552578063715018a61461058f578063819b25ba146105a65780638d859f3e146105cf5761021a565b806332cb6b0c116101a65780634f6ccce7116101755780634f6ccce714610459578063518302271461049657806355f804b3146104c1578063573f5dae146104ea5780636352211e146105155761021a565b806332cb6b0c146103d25780633ccfd60b146103fd57806342842e0e1461040757806349ec975b146104305761021a565b806318160ddd116101ed57806318160ddd146102ed5780631e84c4131461031857806323b872dd1461034357806328cad13d1461036c5780632f745c59146103955761021a565b806301ffc9a71461021f57806306fdde031461025c578063081812fc14610287578063095ea7b3146102c4575b600080fd5b34801561022b57600080fd5b506102466004803603810190610241919061351c565b610889565b604051610253919061404b565b60405180910390f35b34801561026857600080fd5b50610271610903565b60405161027e9190614066565b60405180910390f35b34801561029357600080fd5b506102ae60048036038101906102a991906135af565b610995565b6040516102bb9190613fe4565b60405180910390f35b3480156102d057600080fd5b506102eb60048036038101906102e6919061345f565b610a1a565b005b3480156102f957600080fd5b50610302610b32565b60405161030f91906143a8565b60405180910390f35b34801561032457600080fd5b5061032d610b3f565b60405161033a919061404b565b60405180910390f35b34801561034f57600080fd5b5061036a60048036038101906103659190613359565b610b52565b005b34801561037857600080fd5b50610393600480360381019061038e91906134f3565b610bb2565b005b3480156103a157600080fd5b506103bc60048036038101906103b7919061345f565b610c4b565b6040516103c991906143a8565b60405180910390f35b3480156103de57600080fd5b506103e7610cf0565b6040516103f491906143a8565b60405180910390f35b610405610cf6565b005b34801561041357600080fd5b5061042e60048036038101906104299190613359565b610dc1565b005b34801561043c57600080fd5b50610457600480360381019061045291906134f3565b610de1565b005b34801561046557600080fd5b50610480600480360381019061047b91906135af565b610e7a565b60405161048d91906143a8565b60405180910390f35b3480156104a257600080fd5b506104ab610f11565b6040516104b8919061404b565b60405180910390f35b3480156104cd57600080fd5b506104e860048036038101906104e3919061356e565b610f24565b005b3480156104f657600080fd5b506104ff610fba565b60405161050c919061404b565b60405180910390f35b34801561052157600080fd5b5061053c600480360381019061053791906135af565b610fcd565b6040516105499190613fe4565b60405180910390f35b34801561055e57600080fd5b50610579600480360381019061057491906132f4565b61107f565b60405161058691906143a8565b60405180910390f35b34801561059b57600080fd5b506105a4611137565b005b3480156105b257600080fd5b506105cd60048036038101906105c891906135af565b6111bf565b005b3480156105db57600080fd5b506105e461127f565b6040516105f191906143a8565b60405180910390f35b34801561060657600080fd5b5061060f611285565b60405161061c9190613fe4565b60405180910390f35b34801561063157600080fd5b5061064c600480360381019061064791906135af565b6112af565b005b34801561065a57600080fd5b50610663611335565b6040516106709190614066565b60405180910390f35b610693600480360381019061068e91906135af565b6113c7565b005b3480156106a157600080fd5b506106bc60048036038101906106b79190613423565b611542565b005b6106d860048036038101906106d391906135d8565b611558565b005b3480156106e657600080fd5b5061070160048036038101906106fc91906133a8565b61179c565b005b34801561070f57600080fd5b5061072a600480360381019061072591906132f4565b6117fe565b60405161073791906143c3565b60405180910390f35b34801561074c57600080fd5b50610767600480360381019061076291906135af565b611854565b6040516107749190614066565b60405180910390f35b34801561078957600080fd5b506107a4600480360381019061079f91906134f3565b6119ad565b005b3480156107b257600080fd5b506107cd60048036038101906107c8919061331d565b611a46565b6040516107da919061404b565b60405180910390f35b3480156107ef57600080fd5b5061080a6004803603810190610805919061356e565b611ada565b005b34801561081857600080fd5b50610833600480360381019061082e91906132f4565b611b70565b005b34801561084157600080fd5b5061085c6004803603810190610857919061349b565b611c68565b005b34801561086a57600080fd5b50610873611db0565b60405161088091906143a8565b60405180910390f35b60007f780e9d63000000000000000000000000000000000000000000000000000000007bffffffffffffffffffffffffffffffffffffffffffffffffffffffff1916827bffffffffffffffffffffffffffffffffffffffffffffffffffffffff191614806108fc57506108fb82611db6565b5b9050919050565b606060008054610912906146d3565b80601f016020809104026020016040519081016040528092919081815260200182805461093e906146d3565b801561098b5780601f106109605761010080835404028352916020019161098b565b820191906000526020600020905b81548152906001019060200180831161096e57829003601f168201915b5050505050905090565b60006109a082611e98565b6109df576040517f08c379a00000000000000000000000000000000000000000000000000000000081526004016109d6906142a8565b60405180910390fd5b6004600083815260200190815260200160002060009054906101000a900473ffffffffffffffffffffffffffffffffffffffff169050919050565b6000610a2582610fcd565b90508073ffffffffffffffffffffffffffffffffffffffff168373ffffffffffffffffffffffffffffffffffffffff161415610a96576040517f08c379a0000000000000000000000000000000000000000000000000000000008152600401610a8d90614308565b60405180910390fd5b8073ffffffffffffffffffffffffffffffffffffffff16610ab5611f04565b73ffffffffffffffffffffffffffffffffffffffff161480610ae45750610ae381610ade611f04565b611a46565b5b610b23576040517f08c379a0000000000000000000000000000000000000000000000000000000008152600401610b1a90614208565b60405180910390fd5b610b2d8383611f0c565b505050565b6000600880549050905090565b600e60019054906101000a900460ff1681565b610b63610b5d611f04565b82611fc5565b610ba2576040517f08c379a0000000000000000000000000000000000000000000000000000000008152600401610b9990614328565b60405180910390fd5b610bad8383836120a3565b505050565b610bba611f04565b73ffffffffffffffffffffffffffffffffffffffff16610bd8611285565b73ffffffffffffffffffffffffffffffffffffffff1614610c2e576040517f08c379a0000000000000000000000000000000000000000000000000000000008152600401610c25906142c8565b60405180910390fd5b80600e60016101000a81548160ff02191690831515021790555050565b6000610c568361107f565b8210610c97576040517f08c379a0000000000000000000000000000000000000000000000000000000008152600401610c8e90614088565b60405180910390fd5b600660008473ffffffffffffffffffffffffffffffffffffffff1673ffffffffffffffffffffffffffffffffffffffff168152602001908152602001600020600083815260200190815260200160002054905092915050565b600f5481565b610cfe611f04565b73ffffffffffffffffffffffffffffffffffffffff16610d1c611285565b73ffffffffffffffffffffffffffffffffffffffff1614610d72576040517f08c379a0000000000000000000000000000000000000000000000000000000008152600401610d69906142c8565b60405180910390fd5b60004790503373ffffffffffffffffffffffffffffffffffffffff166108fc829081150290604051600060405180830381858888f19350505050158015610dbd573d6000803e3d6000fd5b5050565b610ddc8383836040518060200160405280600081525061179c565b505050565b610de9611f04565b73ffffffffffffffffffffffffffffffffffffffff16610e07611285565b73ffffffffffffffffffffffffffffffffffffffff1614610e5d576040517f08c379a0000000000000000000000000000000000000000000000000000000008152600401610e54906142c8565b60405180910390fd5b80600e60006101000a81548160ff02191690831515021790555050565b6000610e84610b32565b8210610ec5576040517f08c379a0000000000000000000000000000000000000000000000000000000008152600401610ebc90614348565b60405180910390fd5b60088281548110610eff577f4e487b7100000000000000000000000000000000000000000000000000000000600052603260045260246000fd5b90600052602060002001549050919050565b600e60029054906101000a900460ff1681565b610f2c611f04565b73ffffffffffffffffffffffffffffffffffffffff16610f4a611285565b73ffffffffffffffffffffffffffffffffffffffff1614610fa0576040517f08c379a0000000000000000000000000000000000000000000000000000000008152600401610f97906142c8565b60405180910390fd5b80600b9080519060200190610fb69291906130b9565b5050565b600e60009054906101000a900460ff1681565b6000806002600084815260200190815260200160002060009054906101000a900473ffffffffffffffffffffffffffffffffffffffff169050600073ffffffffffffffffffffffffffffffffffffffff168173ffffffffffffffffffffffffffffffffffffffff161415611076576040517f08c379a000000000000000000000000000000000000000000000000000000000815260040161106d90614248565b60405180910390fd5b80915050919050565b60008073ffffffffffffffffffffffffffffffffffffffff168273ffffffffffffffffffffffffffffffffffffffff1614156110f0576040517f08c379a00000000000000000000000000000000000000000000000000000000081526004016110e790614228565b60405180910390fd5b600360008373ffffffffffffffffffffffffffffffffffffffff1673ffffffffffffffffffffffffffffffffffffffff168152602001908152602001600020549050919050565b61113f611f04565b73ffffffffffffffffffffffffffffffffffffffff1661115d611285565b73ffffffffffffffffffffffffffffffffffffffff16146111b3576040517f08c379a00000000000000000000000000000000000000000000000000000000081526004016111aa906142c8565b60405180910390fd5b6111bd60006122ff565b565b6111c7611f04565b73ffffffffffffffffffffffffffffffffffffffff166111e5611285565b73ffffffffffffffffffffffffffffffffffffffff161461123b576040517f08c379a0000000000000000000000000000000000000000000000000000000008152600401611232906142c8565b60405180910390fd5b6000611245610b32565b905060005b8281101561127a5761126733828461126291906144c7565b6123c5565b808061127290614705565b91505061124a565b505050565b60105481565b6000600a60009054906101000a900473ffffffffffffffffffffffffffffffffffffffff16905090565b6112b7611f04565b73ffffffffffffffffffffffffffffffffffffffff166112d5611285565b73ffffffffffffffffffffffffffffffffffffffff161461132b576040517f08c379a0000000000000000000000000000000000000000000000000000000008152600401611322906142c8565b60405180910390fd5b8060108190555050565b606060018054611344906146d3565b80601f0160208091040260200160405190810160405280929190818152602001828054611370906146d3565b80156113bd5780601f10611392576101008083540402835291602001916113bd565b820191906000526020600020905b8154815290600101906020018083116113a057829003601f168201915b5050505050905090565b60006113d1610b32565b9050600e60019054906101000a900460ff16611422576040517f08c379a000000000000000000000000000000000000000000000000000000000815260040161141990614268565b60405180910390fd5b601154821115611467576040517f08c379a000000000000000000000000000000000000000000000000000000000815260040161145e906141e8565b60405180910390fd5b600f54828261147691906144c7565b11156114b7576040517f08c379a00000000000000000000000000000000000000000000000000000000081526004016114ae906140e8565b60405180910390fd5b34826010546114c6919061454e565b1115611507576040517f08c379a00000000000000000000000000000000000000000000000000000000081526004016114fe906141a8565b60405180910390fd5b6000600190505b82811161153d5761152a33828461152591906144c7565b6123c5565b808061153590614705565b91505061150e565b505050565b61155461154d611f04565b83836123e3565b5050565b6000611562610b32565b9050600e60009054906101000a900460ff166115b3576040517f08c379a00000000000000000000000000000000000000000000000000000000081526004016115aa90614368565b60405180910390fd5b601260003373ffffffffffffffffffffffffffffffffffffffff1673ffffffffffffffffffffffffffffffffffffffff16815260200190815260200160002060009054906101000a900460ff1660ff168260ff161115611648576040517f08c379a000000000000000000000000000000000000000000000000000000000815260040161163f906141e8565b60405180910390fd5b600f548260ff168261165a91906144c7565b111561169b576040517f08c379a000000000000000000000000000000000000000000000000000000000815260040161169290614128565b60405180910390fd5b348260ff166010546116ad919061454e565b11156116ee576040517f08c379a00000000000000000000000000000000000000000000000000000000081526004016116e590614388565b60405180910390fd5b81601260003373ffffffffffffffffffffffffffffffffffffffff1673ffffffffffffffffffffffffffffffffffffffff16815260200190815260200160002060008282829054906101000a900460ff1661174991906145dc565b92506101000a81548160ff021916908360ff16021790555060005b8260ff168110156117975761178433828461177f91906144c7565b6123c5565b808061178f90614705565b915050611764565b505050565b6117ad6117a7611f04565b83611fc5565b6117ec576040517f08c379a00000000000000000000000000000000000000000000000000000000081526004016117e390614328565b60405180910390fd5b6117f884848484612550565b50505050565b6000601260008373ffffffffffffffffffffffffffffffffffffffff1673ffffffffffffffffffffffffffffffffffffffff16815260200190815260200160002060009054906101000a900460ff169050919050565b606061185f82611e98565b61189e576040517f08c379a000000000000000000000000000000000000000000000000000000000815260040161189590614148565b60405180910390fd5b60001515600e60029054906101000a900460ff161515141561194c57600c80546118c7906146d3565b80601f01602080910402602001604051908101604052809291908181526020018280546118f3906146d3565b80156119405780601f1061191557610100808354040283529160200191611940565b820191906000526020600020905b81548152906001019060200180831161192357829003601f168201915b505050505090506119a8565b60006119566125ac565b9050600081511161197657604051806020016040528060008152506119a4565b806119808461263e565b600d60405160200161199493929190613fb3565b6040516020818303038152906040525b9150505b919050565b6119b5611f04565b73ffffffffffffffffffffffffffffffffffffffff166119d3611285565b73ffffffffffffffffffffffffffffffffffffffff1614611a29576040517f08c379a0000000000000000000000000000000000000000000000000000000008152600401611a20906142c8565b60405180910390fd5b80600e60026101000a81548160ff02191690831515021790555050565b6000600560008473ffffffffffffffffffffffffffffffffffffffff1673ffffffffffffffffffffffffffffffffffffffff16815260200190815260200160002060008373ffffffffffffffffffffffffffffffffffffffff1673ffffffffffffffffffffffffffffffffffffffff16815260200190815260200160002060009054906101000a900460ff16905092915050565b611ae2611f04565b73ffffffffffffffffffffffffffffffffffffffff16611b00611285565b73ffffffffffffffffffffffffffffffffffffffff1614611b56576040517f08c379a0000000000000000000000000000000000000000000000000000000008152600401611b4d906142c8565b60405180910390fd5b80600c9080519060200190611b6c9291906130b9565b5050565b611b78611f04565b73ffffffffffffffffffffffffffffffffffffffff16611b96611285565b73ffffffffffffffffffffffffffffffffffffffff1614611bec576040517f08c379a0000000000000000000000000000000000000000000000000000000008152600401611be3906142c8565b60405180910390fd5b600073ffffffffffffffffffffffffffffffffffffffff168173ffffffffffffffffffffffffffffffffffffffff161415611c5c576040517f08c379a0000000000000000000000000000000000000000000000000000000008152600401611c53906140c8565b60405180910390fd5b611c65816122ff565b50565b611c70611f04565b73ffffffffffffffffffffffffffffffffffffffff16611c8e611285565b73ffffffffffffffffffffffffffffffffffffffff1614611ce4576040517f08c379a0000000000000000000000000000000000000000000000000000000008152600401611cdb906142c8565b60405180910390fd5b60005b83839050811015611daa578160126000868685818110611d30577f4e487b7100000000000000000000000000000000000000000000000000000000600052603260045260246000fd5b9050602002016020810190611d4591906132f4565b73ffffffffffffffffffffffffffffffffffffffff1673ffffffffffffffffffffffffffffffffffffffff16815260200190815260200160002060006101000a81548160ff021916908360ff1602179055508080611da290614705565b915050611ce7565b50505050565b60115481565b60007f80ac58cd000000000000000000000000000000000000000000000000000000007bffffffffffffffffffffffffffffffffffffffffffffffffffffffff1916827bffffffffffffffffffffffffffffffffffffffffffffffffffffffff19161480611e8157507f5b5e139f000000000000000000000000000000000000000000000000000000007bffffffffffffffffffffffffffffffffffffffffffffffffffffffff1916827bffffffffffffffffffffffffffffffffffffffffffffffffffffffff1916145b80611e915750611e90826127eb565b5b9050919050565b60008073ffffffffffffffffffffffffffffffffffffffff166002600084815260200190815260200160002060009054906101000a900473ffffffffffffffffffffffffffffffffffffffff1673ffffffffffffffffffffffffffffffffffffffff1614159050919050565b600033905090565b816004600083815260200190815260200160002060006101000a81548173ffffffffffffffffffffffffffffffffffffffff021916908373ffffffffffffffffffffffffffffffffffffffff160217905550808273ffffffffffffffffffffffffffffffffffffffff16611f7f83610fcd565b73ffffffffffffffffffffffffffffffffffffffff167f8c5be1e5ebec7d5bd14f71427d1e84f3dd0314c0f7b2291e5b200ac8c7c3b92560405160405180910390a45050565b6000611fd082611e98565b61200f576040517f08c379a0000000000000000000000000000000000000000000000000000000008152600401612006906141c8565b60405180910390fd5b600061201a83610fcd565b90508073ffffffffffffffffffffffffffffffffffffffff168473ffffffffffffffffffffffffffffffffffffffff16148061208957508373ffffffffffffffffffffffffffffffffffffffff1661207184610995565b73ffffffffffffffffffffffffffffffffffffffff16145b8061209a57506120998185611a46565b5b91505092915050565b8273ffffffffffffffffffffffffffffffffffffffff166120c382610fcd565b73ffffffffffffffffffffffffffffffffffffffff1614612119576040517f08c379a0000000000000000000000000000000000000000000000000000000008152600401612110906142e8565b60405180910390fd5b600073ffffffffffffffffffffffffffffffffffffffff168273ffffffffffffffffffffffffffffffffffffffff161415612189576040517f08c379a000000000000000000000000000000000000000000000000000000000815260040161218090614168565b60405180910390fd5b612194838383612855565b61219f600082611f0c565b6001600360008573ffffffffffffffffffffffffffffffffffffffff1673ffffffffffffffffffffffffffffffffffffffff16815260200190815260200160002060008282546121ef91906145a8565b925050819055506001600360008473ffffffffffffffffffffffffffffffffffffffff1673ffffffffffffffffffffffffffffffffffffffff168152602001908152602001600020600082825461224691906144c7565b92505081905550816002600083815260200190815260200160002060006101000a81548173ffffffffffffffffffffffffffffffffffffffff021916908373ffffffffffffffffffffffffffffffffffffffff160217905550808273ffffffffffffffffffffffffffffffffffffffff168473ffffffffffffffffffffffffffffffffffffffff167fddf252ad1be2c89b69c2b068fc378daa952ba7f163c4a11628f55a4df523b3ef60405160405180910390a4505050565b6000600a60009054906101000a900473ffffffffffffffffffffffffffffffffffffffff16905081600a60006101000a81548173ffffffffffffffffffffffffffffffffffffffff021916908373ffffffffffffffffffffffffffffffffffffffff1602179055508173ffffffffffffffffffffffffffffffffffffffff168173ffffffffffffffffffffffffffffffffffffffff167f8be0079c531659141344cd1fd0a4f28419497f9722a3daafe3b4186f6b6457e060405160405180910390a35050565b6123df828260405180602001604052806000815250612969565b5050565b8173ffffffffffffffffffffffffffffffffffffffff168373ffffffffffffffffffffffffffffffffffffffff161415612452576040517f08c379a000000000000000000000000000000000000000000000000000000000815260040161244990614188565b60405180910390fd5b80600560008573ffffffffffffffffffffffffffffffffffffffff1673ffffffffffffffffffffffffffffffffffffffff16815260200190815260200160002060008473ffffffffffffffffffffffffffffffffffffffff1673ffffffffffffffffffffffffffffffffffffffff16815260200190815260200160002060006101000a81548160ff0219169083151502179055508173ffffffffffffffffffffffffffffffffffffffff168373ffffffffffffffffffffffffffffffffffffffff167f17307eab39ab6107e8899845ad3d59bd9653f200f220920489ca2b5937696c3183604051612543919061404b565b60405180910390a3505050565b61255b8484846120a3565b612567848484846129c4565b6125a6576040517f08c379a000000000000000000000000000000000000000000000000000000000815260040161259d906140a8565b60405180910390fd5b50505050565b6060600b80546125bb906146d3565b80601f01602080910402602001604051908101604052809291908181526020018280546125e7906146d3565b80156126345780601f1061260957610100808354040283529160200191612634565b820191906000526020600020905b81548152906001019060200180831161261757829003601f168201915b5050505050905090565b60606000821415612686576040518060400160405280600181526020017f300000000000000000000000000000000000000000000000000000000000000081525090506127e6565b600082905060005b600082146126b85780806126a190614705565b915050600a826126b1919061451d565b915061268e565b60008167ffffffffffffffff8111156126fa577f4e487b7100000000000000000000000000000000000000000000000000000000600052604160045260246000fd5b6040519080825280601f01601f19166020018201604052801561272c5781602001600182028036833780820191505090505b5090505b600085146127df5760018261274591906145a8565b9150600a85612754919061474e565b603061276091906144c7565b60f81b81838151811061279c577f4e487b7100000000000000000000000000000000000000000000000000000000600052603260045260246000fd5b60200101907effffffffffffffffffffffffffffffffffffffffffffffffffffffffffffff1916908160001a905350600a856127d8919061451d565b9450612730565b8093505050505b919050565b60007f01ffc9a7000000000000000000000000000000000000000000000000000000007bffffffffffffffffffffffffffffffffffffffffffffffffffffffff1916827bffffffffffffffffffffffffffffffffffffffffffffffffffffffff1916149050919050565b612860838383612b5b565b600073ffffffffffffffffffffffffffffffffffffffff168373ffffffffffffffffffffffffffffffffffffffff1614156128a35761289e81612b60565b6128e2565b8173ffffffffffffffffffffffffffffffffffffffff168373ffffffffffffffffffffffffffffffffffffffff16146128e1576128e08382612ba9565b5b5b600073ffffffffffffffffffffffffffffffffffffffff168273ffffffffffffffffffffffffffffffffffffffff1614156129255761292081612d16565b612964565b8273ffffffffffffffffffffffffffffffffffffffff168273ffffffffffffffffffffffffffffffffffffffff1614612963576129628282612e59565b5b5b505050565b6129738383612ed8565b61298060008484846129c4565b6129bf576040517f08c379a00000000000000000000000000000000000000000000000000000000081526004016129b6906140a8565b60405180910390fd5b505050565b60006129e58473ffffffffffffffffffffffffffffffffffffffff166130a6565b15612b4e578373ffffffffffffffffffffffffffffffffffffffff1663150b7a02612a0e611f04565b8786866040518563ffffffff1660e01b8152600401612a309493929190613fff565b602060405180830381600087803b158015612a4a57600080fd5b505af1925050508015612a7b57506040513d601f19601f82011682018060405250810190612a789190613545565b60015b612afe573d8060008114612aab576040519150601f19603f3d011682016040523d82523d6000602084013e612ab0565b606091505b50600081511415612af6576040517f08c379a0000000000000000000000000000000000000000000000000000000008152600401612aed906140a8565b60405180910390fd5b805181602001fd5b63150b7a0260e01b7bffffffffffffffffffffffffffffffffffffffffffffffffffffffff1916817bffffffffffffffffffffffffffffffffffffffffffffffffffffffff191614915050612b53565b600190505b949350505050565b505050565b6008805490506009600083815260200190815260200160002081905550600881908060018154018082558091505060019003906000526020600020016000909190919091505550565b60006001612bb68461107f565b612bc091906145a8565b9050600060076000848152602001908152602001600020549050818114612ca5576000600660008673ffffffffffffffffffffffffffffffffffffffff1673ffffffffffffffffffffffffffffffffffffffff168152602001908152602001600020600084815260200190815260200160002054905080600660008773ffffffffffffffffffffffffffffffffffffffff1673ffffffffffffffffffffffffffffffffffffffff168152602001908152602001600020600084815260200190815260200160002081905550816007600083815260200190815260200160002081905550505b6007600084815260200190815260200160002060009055600660008573ffffffffffffffffffffffffffffffffffffffff1673ffffffffffffffffffffffffffffffffffffffff16815260200190815260200160002060008381526020019081526020016000206000905550505050565b60006001600880549050612d2a91906145a8565b9050600060096000848152602001908152602001600020549050600060088381548110612d80577f4e487b7100000000000000000000000000000000000000000000000000000000600052603260045260246000fd5b906000526020600020015490508060088381548110612dc8577f4e487b7100000000000000000000000000000000000000000000000000000000600052603260045260246000fd5b906000526020600020018190555081600960008381526020019081526020016000208190555060096000858152602001908152602001600020600090556008805480612e3d577f4e487b7100000000000000000000000000000000000000000000000000000000600052603160045260246000fd5b6001900381819060005260206000200160009055905550505050565b6000612e648361107f565b905081600660008573ffffffffffffffffffffffffffffffffffffffff1673ffffffffffffffffffffffffffffffffffffffff168152602001908152602001600020600083815260200190815260200160002081905550806007600084815260200190815260200160002081905550505050565b600073ffffffffffffffffffffffffffffffffffffffff168273ffffffffffffffffffffffffffffffffffffffff161415612f48576040517f08c379a0000000000000000000000000000000000000000000000000000000008152600401612f3f90614288565b60405180910390fd5b612f5181611e98565b15612f91576040517f08c379a0000000000000000000000000000000000000000000000000000000008152600401612f8890614108565b60405180910390fd5b612f9d60008383612855565b6001600360008473ffffffffffffffffffffffffffffffffffffffff1673ffffffffffffffffffffffffffffffffffffffff1681526020019081526020016000206000828254612fed91906144c7565b92505081905550816002600083815260200190815260200160002060006101000a81548173ffffffffffffffffffffffffffffffffffffffff021916908373ffffffffffffffffffffffffffffffffffffffff160217905550808273ffffffffffffffffffffffffffffffffffffffff16600073ffffffffffffffffffffffffffffffffffffffff167fddf252ad1be2c89b69c2b068fc378daa952ba7f163c4a11628f55a4df523b3ef60405160405180910390a45050565b600080823b905060008111915050919050565b8280546130c5906146d3565b90600052602060002090601f0160209004810192826130e7576000855561312e565b82601f1061310057805160ff191683800117855561312e565b8280016001018555821561312e579182015b8281111561312d578251825591602001919060010190613112565b5b50905061313b919061313f565b5090565b5b80821115613158576000816000905550600101613140565b5090565b600061316f61316a8461440f565b6143de565b90508281526020810184848401111561318757600080fd5b613192848285614691565b509392505050565b60006131ad6131a88461443f565b6143de565b9050828152602081018484840111156131c557600080fd5b6131d0848285614691565b509392505050565b6000813590506131e78161484c565b92915050565b60008083601f8401126131ff57600080fd5b8235905067ffffffffffffffff81111561321857600080fd5b60208301915083602082028301111561323057600080fd5b9250929050565b60008135905061324681614863565b92915050565b60008135905061325b8161487a565b92915050565b6000815190506132708161487a565b92915050565b600082601f83011261328757600080fd5b813561329784826020860161315c565b91505092915050565b600082601f8301126132b157600080fd5b81356132c184826020860161319a565b91505092915050565b6000813590506132d981614891565b92915050565b6000813590506132ee816148a8565b92915050565b60006020828403121561330657600080fd5b6000613314848285016131d8565b91505092915050565b6000806040838503121561333057600080fd5b600061333e858286016131d8565b925050602061334f858286016131d8565b9150509250929050565b60008060006060848603121561336e57600080fd5b600061337c868287016131d8565b935050602061338d868287016131d8565b925050604061339e868287016132ca565b9150509250925092565b600080600080608085870312156133be57600080fd5b60006133cc878288016131d8565b94505060206133dd878288016131d8565b93505060406133ee878288016132ca565b925050606085013567ffffffffffffffff81111561340b57600080fd5b61341787828801613276565b91505092959194509250565b6000806040838503121561343657600080fd5b6000613444858286016131d8565b925050602061345585828601613237565b9150509250929050565b6000806040838503121561347257600080fd5b6000613480858286016131d8565b9250506020613491858286016132ca565b9150509250929050565b6000806000604084860312156134b057600080fd5b600084013567ffffffffffffffff8111156134ca57600080fd5b6134d6868287016131ed565b935093505060206134e9868287016132df565b9150509250925092565b60006020828403121561350557600080fd5b600061351384828501613237565b91505092915050565b60006020828403121561352e57600080fd5b600061353c8482850161324c565b91505092915050565b60006020828403121561355757600080fd5b600061356584828501613261565b91505092915050565b60006020828403121561358057600080fd5b600082013567ffffffffffffffff81111561359a57600080fd5b6135a6848285016132a0565b91505092915050565b6000602082840312156135c157600080fd5b60006135cf848285016132ca565b91505092915050565b6000602082840312156135ea57600080fd5b60006135f8848285016132df565b91505092915050565b61360a81614610565b82525050565b61361981614622565b82525050565b600061362a82614484565b613634818561449a565b93506136448185602086016146a0565b61364d8161483b565b840191505092915050565b60006136638261448f565b61366d81856144ab565b935061367d8185602086016146a0565b6136868161483b565b840191505092915050565b600061369c8261448f565b6136a681856144bc565b93506136b68185602086016146a0565b80840191505092915050565b600081546136cf816146d3565b6136d981866144bc565b945060018216600081146136f4576001811461370557613738565b60ff19831686528186019350613738565b61370e8561446f565b60005b8381101561373057815481890152600182019150602081019050613711565b838801955050505b50505092915050565b600061374e602b836144ab565b91507f455243373231456e756d657261626c653a206f776e657220696e646578206f7560008301527f74206f6620626f756e64730000000000000000000000000000000000000000006020830152604082019050919050565b60006137b46032836144ab565b91507f4552433732313a207472616e7366657220746f206e6f6e20455243373231526560008301527f63656976657220696d706c656d656e74657200000000000000000000000000006020830152604082019050919050565b600061381a6026836144ab565b91507f4f776e61626c653a206e6577206f776e657220697320746865207a65726f206160008301527f64647265737300000000000000000000000000000000000000000000000000006020830152604082019050919050565b60006138806020836144ab565b91507f507572636861736520776f756c6420657863656564206d617820746f6b656e736000830152602082019050919050565b60006138c0601c836144ab565b91507f4552433732313a20746f6b656e20616c7265616479206d696e746564000000006000830152602082019050919050565b6000613900602a836144ab565b91507f507572636861736520776f756c6420657863656564206d617820617661696c6160008301527f626c6520746f6b656e73000000000000000000000000000000000000000000006020830152604082019050919050565b60006139666013836144ab565b91507f496e6578697374656e7420546f6b656e204944000000000000000000000000006000830152602082019050919050565b60006139a66024836144ab565b91507f4552433732313a207472616e7366657220746f20746865207a65726f2061646460008301527f72657373000000000000000000000000000000000000000000000000000000006020830152604082019050919050565b6000613a0c6019836144ab565b91507f4552433732313a20617070726f766520746f2063616c6c6572000000000000006000830152602082019050919050565b6000613a4c601f836144ab565b91507f45746865722076616c75652073656e74206973206e6f7420636f7272656374006000830152602082019050919050565b6000613a8c602c836144ab565b91507f4552433732313a206f70657261746f7220717565727920666f72206e6f6e657860008301527f697374656e7420746f6b656e00000000000000000000000000000000000000006020830152604082019050919050565b6000613af26010836144ab565b91507f446f6e27742062652067726565647921000000000000000000000000000000006000830152602082019050919050565b6000613b326038836144ab565b91507f4552433732313a20617070726f76652063616c6c6572206973206e6f74206f7760008301527f6e6572206e6f7220617070726f76656420666f7220616c6c00000000000000006020830152604082019050919050565b6000613b98602a836144ab565b91507f4552433732313a2062616c616e636520717565727920666f7220746865207a6560008301527f726f2061646472657373000000000000000000000000000000000000000000006020830152604082019050919050565b6000613bfe6029836144ab565b91507f4552433732313a206f776e657220717565727920666f72206e6f6e657869737460008301527f656e7420746f6b656e00000000000000000000000000000000000000000000006020830152604082019050919050565b6000613c646019836144ab565b91507f5075626c69632073616c65206973206e6f7420616374697665000000000000006000830152602082019050919050565b6000613ca46020836144ab565b91507f4552433732313a206d696e7420746f20746865207a65726f20616464726573736000830152602082019050919050565b6000613ce4602c836144ab565b91507f4552433732313a20617070726f76656420717565727920666f72206e6f6e657860008301527f697374656e7420746f6b656e00000000000000000000000000000000000000006020830152604082019050919050565b6000613d4a6020836144ab565b91507f4f776e61626c653a2063616c6c6572206973206e6f7420746865206f776e65726000830152602082019050919050565b6000613d8a6029836144ab565b91507f4552433732313a207472616e73666572206f6620746f6b656e2074686174206960008301527f73206e6f74206f776e00000000000000000000000000000000000000000000006020830152604082019050919050565b6000613df06021836144ab565b91507f4552433732313a20617070726f76616c20746f2063757272656e74206f776e6560008301527f72000000000000000000000000000000000000000000000000000000000000006020830152604082019050919050565b6000613e566031836144ab565b91507f4552433732313a207472616e736665722063616c6c6572206973206e6f74206f60008301527f776e6572206e6f7220617070726f7665640000000000000000000000000000006020830152604082019050919050565b6000613ebc602c836144ab565b91507f455243373231456e756d657261626c653a20676c6f62616c20696e646578206f60008301527f7574206f6620626f756e647300000000000000000000000000000000000000006020830152604082019050919050565b6000613f226010836144ab565b91507f574c206973206e6f7420616374697665000000000000000000000000000000006000830152602082019050919050565b6000613f626017836144ab565b91507f4554482073656e74206973206e6f7420636f72726563740000000000000000006000830152602082019050919050565b613f9e8161467a565b82525050565b613fad81614684565b82525050565b6000613fbf8286613691565b9150613fcb8285613691565b9150613fd782846136c2565b9150819050949350505050565b6000602082019050613ff96000830184613601565b92915050565b60006080820190506140146000830187613601565b6140216020830186613601565b61402e6040830185613f95565b8181036060830152614040818461361f565b905095945050505050565b60006020820190506140606000830184613610565b92915050565b600060208201905081810360008301526140808184613658565b905092915050565b600060208201905081810360008301526140a181613741565b9050919050565b600060208201905081810360008301526140c1816137a7565b9050919050565b600060208201905081810360008301526140e18161380d565b9050919050565b6000602082019050818103600083015261410181613873565b9050919050565b60006020820190508181036000830152614121816138b3565b9050919050565b60006020820190508181036000830152614141816138f3565b9050919050565b6000602082019050818103600083015261416181613959565b9050919050565b6000602082019050818103600083015261418181613999565b9050919050565b600060208201905081810360008301526141a1816139ff565b9050919050565b600060208201905081810360008301526141c181613a3f565b9050919050565b600060208201905081810360008301526141e181613a7f565b9050919050565b6000602082019050818103600083015261420181613ae5565b9050919050565b6000602082019050818103600083015261422181613b25565b9050919050565b6000602082019050818103600083015261424181613b8b565b9050919050565b6000602082019050818103600083015261426181613bf1565b9050919050565b6000602082019050818103600083015261428181613c57565b9050919050565b600060208201905081810360008301526142a181613c97565b9050919050565b600060208201905081810360008301526142c181613cd7565b9050919050565b600060208201905081810360008301526142e181613d3d565b9050919050565b6000602082019050818103600083015261430181613d7d565b9050919050565b6000602082019050818103600083015261432181613de3565b9050919050565b6000602082019050818103600083015261434181613e49565b9050919050565b6000602082019050818103600083015261436181613eaf565b9050919050565b6000602082019050818103600083015261438181613f15565b9050919050565b600060208201905081810360008301526143a181613f55565b9050919050565b60006020820190506143bd6000830184613f95565b92915050565b60006020820190506143d86000830184613fa4565b92915050565b6000604051905081810181811067ffffffffffffffff821117156144055761440461480c565b5b8060405250919050565b600067ffffffffffffffff82111561442a5761442961480c565b5b601f19601f8301169050602081019050919050565b600067ffffffffffffffff82111561445a5761445961480c565b5b601f19601f8301169050602081019050919050565b60008190508160005260206000209050919050565b600081519050919050565b600081519050919050565b600082825260208201905092915050565b600082825260208201905092915050565b600081905092915050565b60006144d28261467a565b91506144dd8361467a565b9250827fffffffffffffffffffffffffffffffffffffffffffffffffffffffffffffffff038211156145125761451161477f565b5b828201905092915050565b60006145288261467a565b91506145338361467a565b925082614543576145426147ae565b5b828204905092915050565b60006145598261467a565b91506145648361467a565b9250817fffffffffffffffffffffffffffffffffffffffffffffffffffffffffffffffff048311821515161561459d5761459c61477f565b5b828202905092915050565b60006145b38261467a565b91506145be8361467a565b9250828210156145d1576145d061477f565b5b828203905092915050565b60006145e782614684565b91506145f283614684565b9250828210156146055761460461477f565b5b828203905092915050565b600061461b8261465a565b9050919050565b60008115159050919050565b60007fffffffff0000000000000000000000000000000000000000000000000000000082169050919050565b600073ffffffffffffffffffffffffffffffffffffffff82169050919050565b6000819050919050565b600060ff82169050919050565b82818337600083830152505050565b60005b838110156146be5780820151818401526020810190506146a3565b838111156146cd576000848401525b50505050565b600060028204905060018216806146eb57607f821691505b602082108114156146ff576146fe6147dd565b5b50919050565b60006147108261467a565b91507fffffffffffffffffffffffffffffffffffffffffffffffffffffffffffffffff8214156147435761474261477f565b5b600182019050919050565b60006147598261467a565b91506147648361467a565b925082614774576147736147ae565b5b828206905092915050565b7f4e487b7100000000000000000000000000000000000000000000000000000000600052601160045260246000fd5b7f4e487b7100000000000000000000000000000000000000000000000000000000600052601260045260246000fd5b7f4e487b7100000000000000000000000000000000000000000000000000000000600052602260045260246000fd5b7f4e487b7100000000000000000000000000000000000000000000000000000000600052604160045260246000fd5b6000601f19601f8301169050919050565b61485581614610565b811461486057600080fd5b50565b61486c81614622565b811461487757600080fd5b50565b6148838161462e565b811461488e57600080fd5b50565b61489a8161467a565b81146148a557600080fd5b50565b6148b181614684565b81146148bc57600080fd5b5056fea264697066735822122004f0778c4ecb708cc870fd4e07e9b52f99911808bac3d32d0b867ea9948efccb64736f6c63430008000033",
    "linkReferences": {},
    "deployedLinkReferences": {}
}